:020000040000FA
:10000000C00A00206D02000081020000830200008F
:10001000850200008502000085020000000000004B
:100020000000000000000000000000008502000049
:100030008502000000000000850200007D03000032
:100040008502000085020000850200008502000094
:100050008502000085020000850200008502000084
:100060008502000085020000850200008502000074
:100070008502000085020000850200008502000064
:100080008502000085020000850200008502000054
:100090008502000085020000850200008502000044
:1000A0008502000085020000850200008502000034
:1000B0008502000085020000850200008502000024
:1000C0008502000085020000850200008502000014
:1000D0008502000085020000850200008502000004
:1000E0008502000000000000000000008502000002
:1000F00085020000850200008502000085020000E4
:1001000085020000850200008502000085020000D3
:1001100000000000000000008502000085020000D1
:1001200085020000850200008502000085020000B3
:1001300085020000850200008502000085020000A3
:1001400000000000000000000000000000000000AF
:100150008502000085020000850200008502000083
:10016000000000000000000000000000000000008F
:10017000000000000000000000000000000000007F
:10018000000000000000000000000000000000006F
:10019000000000000000000000000000000000005F
:1001A000000000000000000000000000000000004F
:1001B0008502000085020000850200008502000023
:1001C0008502000085020000850200008502000013
:1001D0008502000085020000850200008502000003
:1001E00085020000850200008502000085020000F3
:1001F00085020000850200008502000085020000E3
:100200008502000085020000850200000000000059
:1002100085020000850200008502000085020000C2
:1002200085020000850200008502000085020000B2
:1002300085020000850200008502000085020000A2
:100240008502000085020000850200008502000092
:100250008502000085020000850200008502000082
:100260008502000085020000850200004EF68850DD
:10027000CEF20000016841F47001016000F004B8A2
:10028000FEE7FEE7FEE7000000F002F800F03CF8B1
:100290000AA090E8000C82448344AAF10107DA45E1
:1002A00001D100F031F8AFF2090EBAE80F0013F0F7
:1002B000010F18BFFB1A43F001031847A8440000C0
:1002C000C8440000103A24BF78C878C1FAD8520751
:1002D00024BF30C830C144BF04680C6070470000C0
:1002E0000023002400250026103A28BF78C1FBD83F
:1002F000520728BF30C148BF0B6070471FB503F0DD
:100300000EFF1FBD10B510BD03F0D6FB1146FFF761
:10031000F5FF00F051F803F0F4FB03B4FFF7F2FF30
:1003200003BC03F0F9FB00000138FDD17047000069
:10033000EFF3108072B67047EFF310807047EFF361
:10034000108062B6704730BF704780F311887047E5
:10035000EFF3118070470000024600210AE05A487E
:1003600010F83100904204D1574800EBC1004068BA
:100370007047491C1429F2D354A0F9E7704710B50F
:10038000574803F055FE574803F052FE012003F092
:100390007BFC40F2014003F077FC03214FF040204A
:1003A00003F0B0FC03F002FD044622464FF4E131B5
:1003B000002000F01FFD10BD0EB54BA103C9CDE913
:1003C00000014B4803F0A4FD4A4803F031FEFFF75B
:1003D000D6FF49A000F0ACFE01224EA14E4801F02C
:1003E00073FE044644B12046FFF7B6FF0546294692
:1003F0004AA000F09DFE07E02046FFF7ADFF05464E
:1004000029464BA000F094FE4DA000F091FE0A2278
:1004100051A1544801F083FE044644B12046FFF741
:100420009BFF0546294650A000F082FE17E002AB74
:10043000052269464B4801F0DAFF044624B950A072
:10044000029900F075FE07E02046FFF785FF05469C
:10045000294650A000F06CFE424802F008F96420E2
:10046000FFF762FF51A000F063FE01223AA13D4870
:1004700001F055FE044644B12046FFF76DFF0546E6
:10048000294639A000F054FE1BE002AB0522694664
:10049000344801F0DDFE044644B94AA0029900F058
:1004A00047FE69464DA000F043FE07E02046FFF7F7
:1004B00053FF054629464BA000F03AFE294802F0BA
:1004C000D6F800BFFEE7000000000020554E4B4E5E
:1004D0004F574E204552524F5220434F4445000043
:1004E000000800F0001800F068656C6C6F000000F8
:1004F0004005C001021C00F00A0A53442043617207
:1005000064204578616D706C652050726F67726110
:100510006D0A0000303A0000B4000020665F6D6F85
:10052000756E74206572726F723A2025730A00002E
:10053000665F6D6F756E74204F4B3A2025730A000D
:1005400077726974652066696C6520746573742EB2
:100550002E2E2E2E2E0A0D00303A2F746573742E17
:10056000747874001C0900206F70656E2066696CD9
:1005700065206572726F72203A2025730A0D0000A3
:1005800077726974652064617461206F6B21202526
:10059000730A0D0077726974652064617461206567
:1005A00072726F72203A2025730A0D0072656164C1
:1005B0002066696C6520746573742E2E2E2E2E2E87
:1005C0000A0D0000726561642064617461206E75BB
:1005D0006D203A2025640A0D0000000025730A0DE5
:1005E00000000000726561642066696C65206572B8
:1005F000726F72203A2025730A0D000010B5FF209B
:1006000003F091FBFB220421FC4803F089FB10BDA1
:1006100010B504221146F94803F082FB002003F0D4
:1006200082FB10BD38B504462146F54803F0ADFB0A
:100630006946F34803F0A2FB00BFF14803F075FBE5
:100640000028FAD138BD08B5FF21ED4803F09DFB25
:100650006946EB4803F092FB00BFE94803F065FBF5
:100660000028FAD10098C0B208BD10B50446FFF7C3
:10067000EAFF207010BD10B53220E2490870FFF784
:10068000E2FF00BFFFF7DFFF0446FF2C03D0DD4889
:1006900000780028F6D1204610BD38B5FFF7B8FF26
:1006A0008021D64803F012FB80221146D34803F084
:1006B00037FB002408E0FF21D14803F066FB6946C0
:1006C000CF4803F05BFB641C0A2CF4D38021CB4899
:1006D00003F00AFB38BD1CB5CB4803F0A9FCCB489E
:1006E00003F0A6FCCA4803F0CFFA4021C34803F048
:1006F000FBFAC84803F0C8FA8021C04803F0F4FAB6
:10070000C54803F0C1FA1021BC4803F0EDFAD0212E
:10071000BA4803F0E9FA0421B84803F0D7FA0A23EB
:1007200002224021B54803F012FA08230222942144
:10073000B24803F00CFA0C2302220421AF4803F064
:1007400006FA03F033FB04460820B44900230322D1
:10075000CDE900102146AA4803F0EBFAA84803F0BF
:100760001FFBFFF79AFF0120AD4908701CBD7CB547
:10077000A34803F010FB03F019FB4408A948844286
:1007800000D90446A84C03F011FB054608200023BD
:1007900003222946CDE90040994803F0CAFA984857
:1007A00003F0FEFA7CBD00209D49087070479C480C
:1007B0000078704770B505460E4664209B49087066
:1007C00000BFFFF740FF0446FF2C03D19748007895
:1007D0000028F6D1FE2C01D0002070BD00BF2846B5
:1007E0006D1CFFF742FF28466D1CFFF73EFFB01E51
:1007F0000600F4D1FFF727FFFFF725FF0120ECE704
:100800002DE9F04104460D46FFF735FFFF2802D0E1
:100810000020BDE8F0812846FFF704FFFD2D1CD025
:10082000002700BF14F8010BFFF7FCFE14F8010BC2
:10083000FFF7F8FE781EC0B20700F3D1FF20FFF7E4
:10084000F1FEFF20FFF7EEFEFFF7FDFE064606F085
:100850001F00052801D00020DBE70120D9E72DE9A2
:10086000F04105460C46FFF706FFFF2802D0FF20A7
:10087000BDE8F0812846FFF7D5FE200EFFF7D2FE37
:10088000C4F30740FFF7CEFEC4F30720FFF7CAFE0C
:10089000E0B2FFF7C7FEFF26402D00D19526482D78
:1008A00000D187263046FFF7BDFE4C2D01D1FFF762
:1008B000CAFE0A2600BFFFF7C6FE074607F0800003
:1008C00018B1701EC0B20600F5D13846D0E770B539
:1008D0004C20FFF7A7FE0020FFF7A4FE0020FFF743
:1008E000A1FE0020FFF79EFE0020FFF79BFE0020E8
:1008F000FFF798FE002507E0FFF7A5FE0446FF2C52
:1009000000D02646681CC5B20A2DF5DB304670BD06
:10091000F8B506460EB10120F8BD4548007800F054
:10092000020010B142480078F6E7FFF7D4FEFFF767
:10093000B4FEFFF763FE002500214020FFF78FFF84
:1009400001284BD16420394908704FF4D5714820F3
:10095000FFF785FF012842D1002405E0FFF773FE71
:100960000DF80400601CC4B2042CF7DB9DF80200F3
:10097000012833D19DF80300AA282FD100BF002100
:100980007720FFF76CFF012806DC4FF080416920DB
:10099000FFF765FF00B903E0244800780028EED196
:1009A00000BF2248007800286AD000217A20FFF793
:1009B00056FF002864D1002405E0FFF744FE0DF83F
:1009C0000400601CC4B2042CF7DB9DF8000000F0AA
:1009D000400008B1062000E00220054650E000215A
:1009E0007720FFF73CFF012824DC00216920FFF776
:1009F00036FF01281EDC02201DE0000000500040F0
:100A000000A00040A2000020021C00F0010800F03D
:100A100002180100021C010002100100A086010062
:100A2000A400002020BCBE0080969800A1000020F9
:100A3000A00000200120054600BF022D0BD100219F
:100A40007720FFF70CFF01280BDC00216920FFF75E
:100A500006FF30B909E000214120FFF700FF00B98F
:100A600003E0D94800780028E7D100BFD6480078D5
:100A700028B14FF400715020FFF7F1FE00B10025BE
:100A8000D2480570FFF7C4FDFFF7DDFD45B1D04842
:100A9000007820F00100CE490870FFF768FE01E001
:100AA000FFF781FECA48007836E7014609B1012008
:100AB0007047C7480078FBE72DE9F04107460D462F
:100AC00016461C4607B914B90420BDE8F081C04899
:100AD000007800F0010008B10320F6E7BB48007879
:100AE00000F0040000B97602FFF788FD012C0BD15D
:100AF00031465120FFF7B3FED8B961022846FFF70F
:100B000059FEB0B1002414E031465220FFF7A7FE91
:100B100078B900BF4FF400712846FFF74BFE00B9CB
:100B200004E005F50075601E0400F3D100BFFFF777
:100B3000CEFEFFF76DFDFFF786FD0CB10120C4E787
:100B40000020C2E72DE9F04107460D4616461C4637
:100B500007B914B90420BDE8F0819D48007800F081
:100B6000010008B10320F6E79948007800F004007E
:100B700008B10220EFE79548007800F0040000B9C2
:100B80007602FFF73BFD012C0BD131465820FFF7D1
:100B900066FE58BBFE212846FFF732FE30B3002424
:100BA00024E08A48007800F0020038B10021772064
:100BB000FFF755FE21465720FFF751FE31465920D9
:100BC000FFF74DFE90B900BFFC212846FFF718FE45
:100BD00000B904E005F50075601E0400F4D100BF03
:100BE000FD210020FFF70CFE00B90124FFF710FDE6
:100BF000FFF729FD0CB10120ADE70020ABE72DE99F
:100C0000FF478146884614462646B9F1000F03D0B7
:100C1000042004B0BDE8F0874FF0010AB8F1050FD9
:100C20001DD1307820B101280AD0022813D10CE060
:100C3000FFF7BDFD08B1FFF7B6FD4FF0000A0DE06C
:100C4000FFF749FD4FF0000A08E0FFF7B0FD7070B4
:100C50004FF0000A02E04FF0040A00BF9FE05C483A
:100C6000007800F0010008B10320D2E7FFF7C6FCCE
:100C7000B8F10B0F5ED009DCB8F1000F53D0B8F11A
:100C8000010F0AD0B8F1020F75D146E0B8F10C0F90
:100C90005DD0B8F10D0F7AD166E000214920FFF751
:100CA000DEFDC8BB10216846FFF784FDA0B39DF8A8
:100CB00000000121B1EBA01F0AD19DF809009DF8A9
:100CC000081000EB0120401C87B2B802206021E030
:100CD0009DF8050000F00F009DF80A1000EBD11000
:100CE0009DF8091001F0030100EB4100851C9DF8FF
:100CF000080080119DF8071000EB81009DF8061098
:100D000001F0030100EB8120471CA5F1090007FA5F
:100D100000F020604FF0000A3CE04FF400702080AB
:100D20004FF0000A36E0FFF7A6FCFF2801D14FF094
:100D3000000A2FE000214920FFF791FD30B9102172
:100D40003046FFF737FD08B14FF0000A22E00021DE
:100D50004A20FFF784FD30B910213046FFF72AFD05
:100D600008B14FF0000A15E000217A20FFF777FD67
:100D700060B9002506E00AE0FFF765FC06F8010B04
:100D8000681CC5B2042DF7DB4FF0000A00BF4FF01E
:100D9000040A00BF00BFFFF73BFCFFF754FC5046BE
:100DA00037E70949087820B1411EC9B20846064A0A
:100DB00011700849087820B1411EC9B20846054A99
:100DC0001170704704487047A1000020A300002064
:100DD000A0000020A2000020C05CC53602480349E4
:100DE000014A034B70470000C0090020C00A0020E0
:100DF000C009002070B504460D461646D34951F887
:100E0000240003F029F900B970BDD14850F824003E
:100E1000D0490860CD4951F8240003F009F9602356
:100E20002A463146CB48006803F038F9C9480068C3
:100E300003F06BF900BFE7E770B505460E460024E6
:100E40000DE0285D0A2804D10D21C248006803F096
:100E50001FF9295DBF48006803F01AF9641CB44209
:100E6000EFD3204670BD2DE9F04106460F46002520
:100E70007F1E2CE0B748006803F004F944B2082C48
:100E800006D125B10321B4A0FFF7D6FF6D1E1EE0E9
:100E90000A2C06D1B148007818B10020AF4908707B
:100EA00015E00D2C03D00A2C01D01B2C05D10D2CE4
:100EB00002D10120A94908700AE0BD4206D274554A
:100EC0006D1CE1B2A348006803F0E2F800BFD1E76F
:100ED00000BF002070550221A1A0FFF7ADFF2846FA
:100EE000BDE8F08110B59B48006803F0CBF8C0B2B4
:100EF00010BD2DE9F34F85B0064612E1002400E055
:100F0000641C305D252802D0305D0028F8D12146D0
:100F10003046FFF791FF264430782528EDD1761C26
:100F200000254FF0200B00BF16F8011B382932D0E6
:100F300014DC33292AD008DC25296FD0302922D0AF
:100F4000312921D032296AD11FE034291FD0352917
:100F50001ED036291DD03729F5D11BE0692935D09F
:100F600008DC392918D0582972D0632922D0642985
:100F7000E9D12AE070296CD073293CD0752958D06A
:100F80007829E0D163E000BF00BF00BF00BF00BF11
:100F900000BF00BF00BF00BF16F8010C302801D110
:100FA00005B9834605EB8500450016F8010C30387D
:100FB0000544B9E70698006804900698001D06905D
:100FC000012104A8FFF738FFAAE000BF06980068D7
:100FD00004900698001D06904FF000080498002821
:100FE00005DA0498404204904FF0010901E04FF007
:100FF00000090A2739E0069850F804AB069000244F
:1010000000E0641C1AF804000028FAD1214650467A
:10101000FFF712FFA5420BD92D1B05E076E07AE021
:10102000012150A0FFF708FF2800A5F10105F7D125
:1010300076E00698006804900698001D06904FF030
:1010400000080A274FF000090FE001E001E000BFAF
:1010500000BF0698006804900698001D06904FF0A7
:10106000000810274FF0000900BF012401E07C4375
:101070006D1E04FB07F00499884205D804FB07F0B5
:10108000B0FBF7F0A042F2D0B9F1000F00D06D1E16
:10109000B9F1000F0AD0BBF1300F07D12D22404625
:1010A00008F101080DF800204FF00009012D0BD9BF
:1010B000102D09D26D1E05E0404608F101080DF81B
:1010C00000B06D1E002DF7D1B9F1000F05D02D2213
:1010D000404608F101080DF8002010E00498B0FB2C
:1010E000F4F0B0FBF7F107FB11001F4909680A5C37
:1010F000404608F101080DF80020B4FBF7F4002C7D
:10110000ECD141466846FFF797FE09E0701E0121C9
:10111000FFF792FE04E0052114A0FFF78DFE00BF4B
:1011200000BF307800287FF4E9AE07B0BDE8F08F4B
:101130000FB408B503A8009000990298FFF7D9FEF4
:101140000020009001B05DF814FB00003841000061
:101150002C410000A800002008200800AC0000205E
:101160000D0A000020000000284100004552524FA7
:101170005200000070B503460C461846214604E0B4
:101180000D680560001D091D121F042AF8D203E036
:1011900011F8015B00F8015B1500A2F10102F7D123
:1011A00070BD30B5034601E003F8011B1400A2F145
:1011B0000102F9D130BDF0B503461C460D460020B2
:1011C00000BF1600A2F1010207D014F8017B15F848
:1011D00001CBA7EB0C063000F3D0F0BD024600E0D7
:1011E000521C107810B110788842F9D110787047ED
:1011F00070B504462079F8B1256B607801232A4642
:1012000004F13401FFF79EFC08B1012070BD0020FD
:101210002071606A281AE16988420DD2E67809E0F7
:10122000E0690544607801232A4604F13401FFF7A0
:1012300089FC761E022EF3D20020E7E770B5044643
:101240000D46206BA84210D02046FFF7D1FF08B111
:10125000012070BD607801232A4604F13401FFF7B4
:101260002BFC08B10120F4E725630020F1E770B5FD
:1012700004462046FFF7BCFF05466DBB20780328D7
:1012800023D16079012820D16289002104F1340042
:10129000FFF787FF4AF65521A4F83212FD48606334
:1012A000FD49C4F818122169C4F81C12E168C4F899
:1012B0002012206A401C20636078012304F134016D
:1012C000226BFFF73FFC002060716078002211461E
:1012D000FFF795FC00B10125284670BD0246891E26
:1012E0009069801E884201D8002070479378D06AA8
:1012F00001FB0300F9E72DE9F04704460D46022DF6
:1013000002D3A069A84202D80120BDE8F087207866
:10131000012804D0022838D0032875D152E02E4687
:1013200006EB56066089B6FBF0F0616A00EB010936
:1013300049462046FFF782FF00B167E06089B6FBAF
:10134000F0F100FB116104F13400475C761C608908
:10135000B6FBF0F0616A00EB010949462046FFF751
:101360006DFF00B152E06089B6FBF0F100FB116146
:1013700004F13400405C47EA002705F0010008B1A1
:101380003809C2E7C7F30B00BFE7B4F80A9009EBCE
:10139000D9704010B5FBF0F0616A00EB010A5146CC
:1013A0002046FFF74BFF00B130E068006189B0FBD9
:1013B000F1F201FB120104F1340001EB0008B8F86E
:1013C0000000A2E7B4F80A904FEAE97009EB9070C8
:1013D0008010B5FBF0F0616A00EB010A514620462F
:1013E000FFF72CFF00B111E0A8006189B0FBF1F21A
:1013F00001FB120104F1340001EB0008D8F80000F1
:1014000020F0704081E7FFE701207EE700BF4FF04A
:10141000FF307AE72DE9F05F04460D469046022D35
:1014200002D3A069A84201D8022798E020780128B9
:1014300004D002284CD003287AD166E0A94609EBF3
:1014400059096089B9FBF0F0616A00EB010A514665
:101450002046FFF7F3FE074607B17DE06089B9FB40
:10146000F0F100FB119104F134000E1805F00100B9
:1014700028B108F0FF01307861F31F1000E040460A
:10148000307009F10109012020716089B9FBF0F089
:10149000616A00EB010A51462046FFF7CFFE07467E
:1014A00007B159E06089B9FBF0F100FB119104F13B
:1014B00034000E1805F0010010B1C8F3071005E064
:1014C000307800F0F000C8F303210843307043E0A7
:1014D000B4F80AA00AEBDA704010B5FBF0F0616ACC
:1014E00000EB010B59462046FFF7A8FE074607B15F
:1014F00032E068006189B0FBF1F201FB120104F1F6
:1015000034000E18A6F8008026E0B4F80AA04FEACE
:10151000EA700AEB90708010B5FBF0F0616A00EBA6
:10152000010B59462046FFF789FE07460FB113E02D
:1015300010E0A8006189B0FBF1F201FB120104F197
:1015400034000E18306800F0704040EA0808C6F811
:10155000008001E0022700BF00BF01202071384653
:10156000BDE8F09F2DE9F04104460E46022E02D35D
:10157000A069B04201D8022727E0002721E03146C8
:101580002046FFF7B8FE054605B91DE0012D01D143
:10159000022719E0681C08B9012715E0002231462E
:1015A0002046FFF737FF074607B10DE02069401CD2
:1015B00030B12069401C2061607940F00100607109
:1015C0002E46A069B042DAD800BF3846BDE8F081A7
:1015D0002DE9F04704468946B9F1000F06D1E768C6
:1015E00017B1A069B84215D8012713E04946204633
:1015F000FFF781FE0646022E02D20120BDE8F087E9
:10160000701C08B93046F9E7A069B04201D93046EC
:10161000F4E74F463D4600BF6D1CA069A84204D8C0
:101620000225BD4201D90020E8E729462046FFF700
:1016300062FE064606B909E0701C08B1012E01D110
:101640003046DBE7BD42E7D10020D7E700BF6FF0AF
:10165000704229462046FFF7DDFE8046B8F1000FB4
:1016600008D1B9F1000F05D02A4649462046FFF7B8
:10167000D1FE8046B8F1000F10D1E5602069401C12
:10168000A0B12069401E2061607940F001006071C6
:101690000CE000005252614172724161B8F1010FD9
:1016A00002D14FF0FF3000E0012005462846A5E7B3
:1016B0002DE9F04104460E46E680A568012D03D0D1
:1016C00020688069A84202D80220BDE8F0812DB9C7
:1016D00020680078032801D12068856A45B9206810
:1016E0000089B04201D80220EFE72068876A24E031
:1016F00021684889C11700EBD161491122689278AD
:1017000011FB02F812E029462068FFF7F4FD0546B8
:10171000681C08B90120D8E7022D03D3206880692E
:10172000A84201D80220D0E7A6EB08064645EAD237
:1017300029462068FFF7D2FD0746E5600FB9022071
:10174000C3E721684889C11700EBD1614911B6FB95
:10175000F1F13944216121684889C11700EBD16159
:101760004911B6FBF1F201FB12612268343202EB3F
:10177000411161610020A8E72DE9F0410446884647
:10178000E088461CB0B208B1206910B90420BDE859
:10179000F08121684889C11700EBD1614911B6FB7E
:1017A000F1F201FB1261002972D12069401C206115
:1017B000E06828B920680089B04269D80420E6E7CB
:1017C00021684889C11700EBD1614911B6FBF1F1DD
:1017D00022689278521E1140002959D1E168206890
:1017E000FFF789FD0546012D01D80220CFE7681CCF
:1017F00008B90120CBE720688069A84242D8B8F137
:10180000000F01D10420C2E7E1682068FFF7E0FE85
:1018100005460DB90720BAE7012D01D10220B6E730
:10182000681C08B90120B2E72068FFF7E1FC08B1A5
:101830000120ACE721684A8901F134000021FFF75B
:10184000B0FC29462068FFF749FD2168086300279E
:101850000EE00120216808712068FFF7C9FC08B17B
:10186000012094E72068006B401C216808637F1CFE
:1018700020688078B842ECD82068006BC01B2168D3
:10188000086300BFE56029462068FFF727FD206157
:10189000E68021684889C11700EBD1614911B6FB88
:1018A000F1F201FB12612268343202EB41116161F5
:1018B00000206CE72DE9F04104460E460021204649
:1018C000FFF7F6FE0546EDB9002700BF2169206845
:1018D000FFF7B4FC054605B113E060690078E52820
:1018E00002D06069007820B9781C0746B04201D167
:1018F00007E0002701212046FFF73EFF0546002DA7
:10190000E4D000BF042D00D107252846BDE8F081B2
:101910000246488B1378032B02D18B8A40EA03409E
:10192000704741830A0C828270472DE9F0410446DA
:1019300000212046FFF7BCFE054615B12846BDE84C
:10194000F08100BF21692068FFF778FC054605B1EA
:1019500016E0666937780FB9042511E0F07A00F0D7
:10196000080030B90B223046A169FFF724FC00B90A
:1019700006E000212046FFF7FFFE0546002DE1D0DE
:1019800000BF2846DBE72DE9F047044689460425D9
:1019900025E021692068FFF751FC054605B121E0EB
:1019A000D4F8148098F800700FB904251AE098F85C
:1019B0000B0000F03F06E52F0AD000BF0F2E07D026
:1019C000082E01D1012000E00020484500D109E0A7
:1019D00000212046FFF7D0FE054605B102E0206950
:1019E0000028D6D100BF0DB1002020612846BDE8F7
:1019F000F08770B5044601212046FFF75BFF0546DE
:101A000095B921692068FFF719FC054665B92022C0
:101A100000216069FFF7C5FB0B22D4E90501FFF740
:101A2000A9FB012021680871284670BD70B50446E5
:101A3000E1882046FFF73CFE054685B9216920680C
:101A4000FFF7FCFB054655B9202200216069FFF72E
:101A5000A8FBE5206169087001202168087128460B
:101A600070BDF0B5044601F109002269F2B1626966
:101A7000002310E01E465B1C955D202D00D10AE07E
:101A8000052D00D1E525092B02D12E2600F8016B8A
:101A900000F8015B00BF0B2BECD3D67A0E72D6692F
:101AA0000E60168B8E80D68ACE8000BF0022027018
:101AB000F0BD2DE9F35F8A46DAF8007000E07F1C84
:101AC00038782F28FBD038785C28F8D000988669C1
:101AD0000B2220213046FFF764FB0025A946A846CB
:101AE0004FF0080B17F808002E2825D100BF4046FC
:101AF00008F101083C5C2E2C02D1B8F1030F00D391
:101B000004E0484609F101093454F0E700BF2F2CE6
:101B100006D05C2C04D0202C02DD0620BDE8FC9F02
:101B200007EB0800CAF80000202C01DC242000E0AC
:101B30002020F0720020F1E700BF404608F10108C4
:101B40003C5C202C03DD2F2C01D05C2C00D135E037
:101B50002E2C01D0D9450DD3BBF1080F01D12E2C6D
:101B600001D00620DAE74FF008094FF00B0BA8066A
:101B7000050EE2E7802C05DB45F00305A4F18000AB
:101B8000FA490C5C2146FAA0FFF728FB08B10620B1
:101B9000C4E7412C04DB5A2C02DC45F0020508E0C6
:101BA000612C06DB7A2C04DC45F00105A4F1200051
:101BB000C4B2484609F101093454BEE700BF07EB3F
:101BC0000800CAF80000202C01DC042000E00020FE
:101BD0000446B9F1000F01D106209FE73078E528CF
:101BE00001D105203070BBF1080F01D1A806050E08
:101BF00005F00300012801D144F0100405F00C00A9
:101C0000042801D144F00804F472002086E72DE98D
:101C1000F3410446019800782F2803D001980078FA
:101C20005C2805D10198401C01900020A06002E0D2
:101C300020684069A06001980078202807D2002120
:101C40002046FFF735FD05460020606133E000BF08
:101C500001A92046FFF72DFF054605B12AE02046E1
:101C6000FFF763FE0546A069C67A95B1042D0FD132
:101C700006F0200040B10020A060606106F0040082
:101C800000B9E5E7002503E006F0040000B90525EA
:101C900010E006F0040000B10CE06769F87A00F08B
:101CA000100008B9052505E039462068FFF730FE29
:101CB000A060CDE700BF2846BDE8FC81F0B5034633
:101CC0004FF0FF371868002846D0196800E0491C1B
:101CD0000878212802D308783A28F8D108783A28D9
:101CE00038D11C682078651C2C46A0F130020A2AE5
:101CF00008D28C4206D1082A2AD21746481C01462F
:101D0000186025E00022491C00BFDFF874C25CF8AF
:101D100022601C6800BF16F8010B14F8015B612DEE
:101D200005DB7A2D03DCA5F1200C0CF0FF0508B1D2
:101D3000A842F0D008B98C4205D002F1010C6246ED
:101D4000BCF1080FE1D3082A01D21746196000BF81
:101D50003846F0BD8B4807783846FAE770B5044638
:101D60000D4600202071401E206329462046FFF7C3
:101D700065FA08B1032070BDB4F832024AF6552165
:101D8000884201D00220F6E7D4F86A0020F07F40B4
:101D90007D49884201D10020EDE7D4F8860020F08B
:101DA0007F407949884201D10020E4E70120E2E741
:101DB0002DE9F74F88B00021089801600998FFF7D6
:101DC0007DFF07900798002803DA0B200BB0BDE8D1
:101DD000F08F6E49079851F820400CB90C20F5E7B8
:101DE00008980460207878B16078FEF75EFE80463F
:101DF00008F0010040B90A9820B108F0040008B1C9
:101E00000A20E3E70020E1E70020207007986070D7
:101E10006078FEF77DFD804608F0010008B10320E0
:101E2000D4E70A9820B108F0040008B10A20CDE7F1
:101E3000607804F10A020221FEF7E1FE38B96089F8
:101E4000B0F5007F03DB6089B0F5006F01DD012094
:101E5000BCE7002739462046FFF780FF0546012DE5
:101E600001D025BB23E000260BE004F5F97101EB5E
:101E70000610017909B1816800E000214DF82610B3
:101E8000761C042EF1D3002606B1761E00BF5DF845
:101E9000267027B139462046FFF760FF00E0022098
:101EA00005461DB1701C06460428F0D300BF032D63
:101EB00001D101208AE70DB10D2087E7B4F83F007A
:101EC0006189884201D00D2080E7B4F84A90B9F1C9
:101ED000000F01D1D4F85890C4F81C904420005D44
:101EE000E070E078012804D0E078022801D00D20CD
:101EF0006CE7E07809FB00F94120005DA070A07854
:101F000018B1A078411E084008B10D205EE7B4F872
:101F1000450020816089C11700EBD16149112289F8
:101F200092FBF1F301FB132109B10D204EE7B4F848
:101F300047B0BBF1000F01D1D4F854B04220005B90
:101F40000490049808B90D2040E76089C11700EBA0
:101F5000D1614911228992FBF1F20499494411445B
:101F6000069106998B4513D20D202FE744410000BE
:101F7000222A2B2C3A3B3C3D3E3F5B5D7C7F0000A0
:101F8000C4410000B0000020464154004009002038
:101F90000698ABEB0000A178B0FBF1FABAF1000FA4
:101FA00001D10D2012E7012540F6F670824500D3DD
:101FB00002254FF6F670824500D303250AF1020090
:101FC000A061276204983844606206983844E06251
:101FD000032D09D1208908B10D20F7E6206EA062FB
:101FE000A0698000059014E0208908B90D20EDE675
:101FF000606A4844A062022D02D1A069400007E057
:10200000207E00F00100A16901EB410100EB5100CD
:1020100005906089401E059908446189B0FBF1F084
:10202000E169884201D90D20D0E64FF0FF302061F0
:10203000E06080206071032D1FD16420005B0128C7
:102040001BD1791C2046FFF7F9F8B0B90020607168
:10205000B4F832024AF6552188420ED1F749606B36
:1020600088420AD1F649D4F81802884205D1D4F83A
:102070001C022061D4F82002E0602570F14800883D
:10208000401C80B2EF490880E0800020606100BF02
:102090009CE670B505462C464CB1206838B12068E6
:1020A000007820B12068C088A188884201D009202A
:1020B00070BD21684878FEF7F8FC00F0010008B117
:1020C0000320F5E70020F3E7F7B582B01646039842
:1020D000019001A8FFF7F2FD0546002D02DA0B2062
:1020E00005B0F0BDD84850F825400CB10020207054
:1020F000029810B1002002990870D349029841F863
:102100002500029808B1012E01D00020E8E7002246
:1021100003A902A8FFF74CFE07463846E0E72DE981
:10212000F7438AB0044616461CB909200DB0BDE835
:10213000F0830020206006F01F0626F001020BA9A4
:1021400003A8FFF735FE0746002F7FD1CDF824D036
:1021500003A80B99FFF75BFD0746089D0FB905B96A
:10216000062706F01C00002842D04FB1042F03D1EF
:1021700003A8FFF73EFC074646F00806089D09E065
:10218000E87A00F0110008B1072703E006F0040028
:1021900000B108275FBB06F0080040B3FEF712FE4F
:1021A0008146C5F80E900020E872E8612946039840
:1021B000FFF7AEFB804600212846FFF7B2FB012067
:1021C00003990871B8F1000F11D00398D0F830903E
:1021D00041460398FFF7C6F9074647B9A8F1010041
:1021E0000399C86049460398FFF728F807460EE0B0
:1021F0006FB9E87A00F0100008B1042707E006F094
:10220000020020B1E87A00F0010000B1072747B9C9
:1022100006F0080008B146F020060398006BE06164
:1022200025628FB9A6710020E07129460398FFF757
:102230006FFB2061E869E0600020A060A061039866
:1022400020602068C08800E000E0A08038466DE78C
:102250002DE9FF4F85B0044615469A46DDF818B0C3
:102260000020CAF800002046FFF713FF04900498EE
:1022700018B1049809B0BDE8F08FE07908B1E079B1
:10228000F8E7A07900F0010008B90720F2E7D4E9E7
:102290000210401A02900298854200D9029DA1E0E6
:1022A00021684989A068B0FBF1F201FB1200002807
:1022B00068D121684989A068B0FBF1F0216889786C
:1022C000491E084000F0FF09B9F1000F17D1A068BE
:1022D00010B92069039004E061692068FFF70BF8EA
:1022E00003900398022802D20220E071C2E703980B
:1022F000401C10B90120E071BCE70398606161697E
:102300002068FEF7EBFF064616B90220E071B1E740
:102310004E4420684089B5FBF0F8B8F1000F30D08A
:1023200009EB080021688978884203D92068807801
:10233000A0EB090821684878434632465946FEF723
:10234000BBFB10B10120E07194E72068007998B1DF
:102350002068006B801B40450ED223681B6B9B1BC3
:10236000D4F800C0BCF80AC003FB0CB023685A893B
:1023700003F13401FEF7FEFE2068408900FB08F7F8
:1023800026E0A66121684989A068B0FBF1F201FB53
:102390001200216849890F1AAF4200D92F46A1695E
:1023A0002068FEF74BFF10B10120E07162E7216861
:1023B0004989A068B0FBF1F201FB120120683430BA
:1023C00008443A46014601905846FEF7D3FE00BF46
:1023D000BB44A0683844A060DAF800003844CAF86A
:1023E0000000ED1B002D7FF45BAF002042E72DE9DC
:1023F000FF4F83B0044615469B4604980190002089
:10240000CBF800002046FFF744FE0290029818B176
:10241000029807B0BDE8F08FE07908B1E079F8E7FD
:10242000A07900F0020008B90720F2E7A06828446C
:10243000A168884200D20025D7E0000052526141D5
:1024400072724161AE000020400900202168498974
:10245000A068B0FBF1F201FB120000287ED12168D8
:102460004989A068B0FBF1F021688978491E0840CD
:1024700000F0FF0ABAF1000F24D1A06858B9D4F8CF
:102480001080B8F1000F0BD100212068FFF7A0F8F1
:102490008046206104E061692068FFF799F8804672
:1024A000B8F1000F00D1A3E0B8F1010F02D1022072
:1024B000E071AEE708F1010010B90120E071A8E772
:1024C000C4F814802068006BA169884206D1206896
:1024D000FEF78EFE10B10120E0719AE76169206875
:1024E000FEF7FCFE064616B90220E07191E756445D
:1024F00020684089B5FBF0F9B9F1000F33D00AEB41
:10250000090021688978884203D920688078A0EB87
:102510000A09216848784B4632460199FEF712FBBA
:1025200010B10120E07174E72068006B801B484502
:1025300012D223681B6BA3EB060C2368B3F80AE0E6
:10254000019B0CFB0E3123685A8903F13400FEF71E
:1025500011FE002021680871206800E011E0408928
:1025600000FB09F735E0D4E90201884208D320686E
:10257000FEF73EFE10B10120E0714AE720680663D5
:10258000A66121684989A068B0FBF1F201FB120045
:10259000216849890F1AAF4200D92F46A1692068E6
:1025A000FEF74CFE10B10120E07132E72168498945
:1025B000A068B0FBF1F201FB12012068343008443E
:1025C0003A4600900199FEF7D5FD01202168087177
:1025D00000BF019838440190A0683844A060DBF83F
:1025E00000003844CBF80000ED1B002D7FF42EAF27
:1025F00000BFD4E90201884201D9A068E060A07957
:1026000040F02000A071002003E72DE9F0410446CE
:102610002046FFF73EFD064636BBA07900F02000BD
:1026200010B3E1692068FEF709FE0646E6B9256A9F
:10263000E87A40F02000E872E068E8612846216905
:10264000FFF76FF9FEF7BEFB0746C5F816700020CE
:102650006882A07920F02000A07101202168087113
:102660002068FEF704FE06463046BDE8F08170B5EE
:1026700005462846FFF7C9FF044634B92846FFF748
:1026800008FD04460CB900202860204670BD31B515
:102690006846FFF713FB0446002C01DA0B2038BD17
:1026A000FA490C700020FAE711B58BB000220BA993
:1026B00004A8FFF77DFB0446ECB901A80A9004A822
:1026C0000B99FFF7A4FA044694B9099818B904992C
:1026D000069848610CE00998C07A00F0100030B10B
:1026E00009990498FFF714F90499486100E005245A
:1026F000042C00D1052420460CB010BD2DE9F34375
:1027000091B08846002011990870002211A90AA8EA
:10271000FFF74EFB0546002D7ED101A810904646DE
:102720000A9840690C9055E001210AA8FEF7C0FF05
:10273000054605B153E000210AA8FFF724F9054634
:1027400005B14CE00F990A98FFF7E2F80C900021D0
:102750000AA8FEF7ADFF054605B140E000BF002125
:102760000AA8FFF710F9054605B10DE00F990A9880
:10277000FFF7CEF8484500D106E000210AA8FEF791
:10278000FBFF0546002DEAD000BF042D00D1022535
:1027900005B124E004A90AA8FFF763F90DF11904B3
:1027A000002700E07F1CE05D0028FBD1F81C86427A
:1027B00001D2112513E006E0781E0746215C701E49
:1027C0000646119A1154002FF6D12F21701E06468D
:1027D000119A1154DDF83090B9F1000FA4D100BF67
:1027E000119CBDB9A9480078303004F8010B3A209B
:1027F00004F8010B464504D12F2004F8010B09E031
:102800000AE000BF3046761C1199085C04F8010B01
:102810004645F7D300202070284613B0BDE8F0836A
:102820002DE9F04704460E462046FFF732FC82466B
:10283000BAF1000F02D05046BDE8F087E07908B148
:10284000E079F9E7E068B04204D2A07900F0020034
:1028500000B9E668D4F808904FF00008C4F8088082
:10286000002E71D0206880782168498900FB01F72B
:10287000B9F1000F11D0701EB0FBF7F1A9F1010002
:10288000B0FBF7F0814208D3A9F10100791E88431B
:10289000A060A068361A656912E025697DB900213B
:1028A0002068FEF795FE0546012D02D10220E07159
:1028B000C2E7681C10B90120E071BDE725616561C0
:1028C000002D41D023E0A07900F0020038B1294664
:1028D0002068FEF77DFE054635B93E4619E02946DB
:1028E0002068FEF708FD0546681C10B90120E0715C
:1028F000A2E7012D03D920688069A84202D80220EE
:10290000E07199E76561A0683844A060F61BBE429B
:10291000D9D800BFA0683044A06020684089B6FBC9
:10292000F0F100FB116078B129462068FEF7D6FC73
:102930008046B8F1000F02D10220E0717CE72068E8
:102940004089B6FBF0F0804421684989A068B0FB5B
:10295000F1F201FB120020B1A069404501D0C4F89A
:102960001880D4E90201884205D9A068E060A07906
:1029700040F02000A07150465EE733B585B00446B4
:1029800014B9092007B030BD002206A904A8FFF73A
:102990000FFA05461DBB0498206001A8A0612046DF
:1029A0000699FFF734F90546B5B9606958B1606911
:1029B000C07A00F0100028B161690498FEF7A8FF02
:1029C000A06000E005253DB90498C088A0800021E2
:1029D0002046FEF76DFE0546042D00D105250DB1FC
:1029E000002020602846CDE770B504462046FFF75A
:1029F00050FB05460DB900202060284670BDFEB58D
:102A000005460E462846FFF744FB04460CBB2EB98C
:102A100000212846FEF74CFE04461AE0C5F818D0FF
:102A200000212846FEF7AFFF0446042C02D1002007
:102A3000286100246CB931462846FFF712F80021BE
:102A40002846FEF799FE0446042C02D10020286196
:102A500000242046FEBD33B58BB00D4600220BA9E5
:102A600004A8FFF7A5F904469CB901A80A9004A898
:102A70000B99FFF7CCF804465CB9099840B145B111
:102A8000294604A8FEF7EDFF03E00000B000002097
:102A9000062420460DB030BD2DE9F74F82B08A469E
:102AA000002202A90498FFF783F9019004980468B2
:102AB0000198002861D1A069801E2169814203D854
:102AC0002069CAF8000058E094F800B00025BBF176
:102AD000010F18D1022600BF31462046FEF70BFC3D
:102AE0000746781C10B9012001900BE0012F02D19C
:102AF0000220019006E007B96D1C701C0646A16912
:102B00008842E9D332E0A669606A00904FF000097C
:102B1000C84600BFB9F1000F0ED10098421C014613
:102B200020460092FEF78AFB0190019800B11CE05C
:102B300004F13408B4F80A90BBF1020F08D1B8F8D8
:102B4000000000B96D1C08F10208A9F1020909E0B2
:102B5000D8F8000020F0704000B96D1C08F104089E
:102B6000A9F10409701E0600D4D100BF2561607967
:102B700040F001006071CAF80050019805B0BDE84E
:102B8000F08F70B504462046FFF783FA054645B935
:102B9000E07908B1E57904E0A07900F0020000B91D
:102BA0000725002D33D1D4E9021088422DD9A06821
:102BB000E060A07940F02000A071A06838B92169D8
:102BC0002068FEF7CFFC0546002020611DE061690A
:102BD0002068FEF790FB06460025701C00B9012511
:102BE000012E00D1022585B920688069B0420CD938
:102BF0006FF0704261692068FEF70CFC054625B94C
:102C000031462068FEF7AEFC054605B1E571284661
:102C100070BD71B591B0012211A90AA8FFF7C8F8DB
:102C20000446002C51D1CDF840D00AA81199FEF7E6
:102C3000EEFF04462CB91098C07A00F0200000B1D5
:102C40000624002C41D10F9E0EB9062404E0F07A30
:102C500000F0010000B1072431460A98FEF758FE43
:102C600005460CBBF07A00F01000E8B1022D01D24D
:102C7000022419E01C220AA903A8FEF77BFA059595
:102C8000022103A8FEF714FD04466CB9002103A835
:102C9000FEF779FE04461CB10A984069A84200D1AB
:102CA0000724042C00D100247CB90AA8FEF7BEFE3C
:102CB000044654B925B129460A98FEF753FC044648
:102CC0001CB90A98FEF7D3FA0446204612B070BD2C
:102CD0002DE9F1478BB0FEF775F8824601220BA96A
:102CE00004A8FFF765F80546002D6ED101A80A90EB
:102CF00004A80B99FEF78BFF054605B90825042D9E
:102D000005D10A98C07A00F0200000B10625042DF4
:102D1000EBD100210498FEF75BFC0646002506B9BE
:102D20000725012E00D10225701C00B901251DB90F
:102D30000498FEF75DFA0546002D52D131460498FD
:102D4000FEF7CCFA8046049800F1340404984289D6
:102D500000212046FEF725FA0B2220212046FEF70F
:102D600020FA2E2020701020E072C4F816A0314600
:102D70002046FEF7D6FD2022214604F12000FEF772
:102D8000F9F92E2084F82100DDF8189004980078D5
:102D9000032804D10498806A484500D1A9464946D1
:102DA00004F12000FEF7BDFD0498877816E0049832
:102DB000C0F8308008F101080120049908710498D6
:102DC000FEF716FA05460DB10AE025E0049842899F
:102DD00000212046FEF7E5F9781EC7B2002FE6D1A4
:102DE00000BF1DB904A8FEF704FE054625B1314613
:102DF0000498FEF7B7FB0FE0099C1020E072C4F8BE
:102E000016A031462046FEF78CFD0120049908717A
:102E10000498FEF72CFA054628460CB0BDE8F0876A
:102E2000F7B58AB00F46144601220AA903A8FEF797
:102E3000BFFF05460DBBCDF824D003A80A99FEF7C5
:102E4000E6FE05462DB90998C07A00F0200000B1D1
:102E5000062595B9089E0EB906250EE004F0270454
:102E600007EA0400F17AA1430843F07201200399B4
:102E700008710398FEF7FBF9054628460DB0F0BD32
:102E800073B58AB00E4601220AA903A8FEF790FF87
:102E90000446ECB9CDF824D003A80A99FEF7B7FE92
:102EA00004462CB90998C07A00F0200000B106242D
:102EB00074B9089D0DB906240AE0F088E882B0884C
:102EC00028830120039908710398FEF7D0F904467E
:102ED00020460CB070BDF3B597B0012217A910A819
:102EE000FEF766FF0446002C14D110980990CDF827
:102EF00058D010A81799FEF78AFE04462CB91698E8
:102F0000C07A00F0200000B10624002C74D115987E
:102F100008B9042470E0159800F10B01152203A8EC
:102F2000FEF728F91C2210A909A8FEF723F918A812
:102F3000FEF7C4FE002805DB09A81899FEF767FE16
:102F4000044600E00B2404B90824042C54D109A839
:102F5000FEF74FFD0446002C4ED10E9D13220DF1BD
:102F60000E0105F10D00FEF705F99DF80C0040F08B
:102F70002000E8720120109908710B99129888427C
:102F800030D0E87A00F0100060B329461098FEF7C0
:102F9000BFFC074639461098FEF7A0F906460EB961
:102FA00002241FE031461098FEF748F904461098B5
:102FB00000F15405B4B968782E2813D11098007820
:102FC000032806D110990B98896A884201D1002004
:102FD00000E00B98064631462846FEF7A2FC012089
:102FE0001099087144B910A8FEF720FD04461CB9D9
:102FF0001098FEF73CF90446204619B0F0BD2DE9C3
:10300000F74187B00D461746002207A96846FEF72C
:10301000CFFE044624BB1DB3002002900021684669
:10302000FEF746FB0446DCB901216846FEF7ABFC1F
:10303000044684B90B2228460599FEF79BF80B2617
:1030400000BF0020A85506B904E0701E0646285CA3
:103050002028F6D000BF042C02D1002028700024C4
:10306000A4B99FB1009A1046116AFEF7E7F804462A
:1030700064B900980078032801D1432000E027209C
:1030800080460098343050F80800386020460AB076
:10309000BDE8F0812DE9F1438AB001220AA903A815
:1030A000FEF786FE06461EB130460BB0BDE8F08343
:1030B00000208DF80000002500E06D1C0A98405D9E
:1030C0000028FAD100E06D1E25B1681E0A99085C3F
:1030D0002028F8D0002D39D00027B94600BF484637
:1030E00009F101090A990C5C612C04DB7A2C02DCE1
:1030F000A4F1200084B2802C03DBA4F18000FC4901
:103100000C5C5CB12146FBA0FEF768F830B9FF2CDF
:1031100001DD0A2000E00B20B84201D80620C4E7F8
:10312000FF2C04DD221238467F1C0DF80020E2B28D
:1031300038467F1C0DF80020A945D0D304E020229A
:1031400038467F1C0DF800200B2FF8D30020059087
:10315000002103A8FEF7ACFA0646002E45D1012156
:1031600003A8FEF710FC0646CEB99DF8000058B142
:103170000B2269460898FDF7FDFFFDF723FE804608
:103180000899C1F8168002E0E5200899087001202E
:10319000039908710398FEF76AF8064625E0042EA5
:1031A00023D100269DF80000F8B1012103A8FEF705
:1031B00081FB0646CEB9202200210898FDF7F1FFD9
:1031C0000B2269460898FDF7D5FF08200899C872B8
:1031D000FDF7F8FD80460898C0F816800120039995
:1031E00008710398FEF743F8064630465DE72DE97F
:1031F000F74F90B0174610A8FEF760FD0F900F989C
:10320000002803DA0B2013B0BDE8F08F11980128D5
:1032100001DD1320F7E7781E384008B11320F2E7EC
:10322000B8490F9851F820500DB90C20EBE7002059
:1032300028700F98C0B20C9000200B900C98FDF7EE
:1032400067FB0190019800F0010008B10320DAE764
:10325000019800F0040008B10A20D4E705F10A0241
:1032600002210C98FDF7CBFC38B96889B0F5006FE6
:1032700003DC6889B0F5007F01DA0120C3E700BFF5
:1032800004AA01210C98FDF7BAFC10B90498802813
:1032900001D20120B7E7119808B1002000E03F20DB
:1032A00083460498A0EB0B000490D7B96889C11736
:1032B00000EBD15149124FF4FA6292FBF1F1049AFA
:1032C000B2FBF1F10A914FF0000901E009F10109A7
:1032D0008D4830F819100A988142F7D88B4830F899
:1032E00019706889B7FBF0F707B90127802F00D95B
:1032F00080270498B0FBF7F8012640F6F670804569
:1033000000D302264FF6F670804500D30326032E25
:103310000CD1082000EB880069890844401EB0FBEE
:10332000F1FA202003900020029019E0012E05D12F
:1033300008EB4800401C4008C01C02E04FEA48006F
:10334000001D824668895044401E6989B0FBF1FA2D
:103350000120039068894FF48041B1FBF0F00290A6
:10336000039858440790079850440690029906988D
:103370000844059005983844A0EB0B000499884256
:1033800001D90E203FE709AA03210C98FDF737FC6D
:1033900028B9099818B10998B0F5004F01D9012052
:1033A0000990099905980844401E491E88430990D0
:1033B00009990598081A0990032E08D109990398CC
:1033C00008440390099907980844079001E0099878
:1033D0008244DDE90301081AA0EB0A010298081AE9
:1033E000B0FBF7F8022E03D140F6F670804505D306
:1033F000032E05D14FF6F670804501D20E2002E76C
:10340000032E02D10C200D9010E0012E06D104985D
:10341000B0F5803F02D201200D9007E00498B0F58E
:10342000803F01D2042000E006200D9000BF1198DB
:1034300010B1F0200E9034E06A89002105F13400CB
:10344000FDF7AFFE05F5F97401206070A070002053
:10345000E0700D982071FE206071049858443F215F
:10346000B0FBF1F0FF21B0FBF1F009903F2109988A
:1034700041EA9000A0710998E0713F20A060049893
:10348000E0604AF65521A5F832120123002205F129
:1034900034010C98FDF756FB08B10120B3E6F82083
:1034A0000E9005F134046A8900212046FDF779FE6B
:1034B0000B2217A12046FDF75DFEB5F80A90A4F88F
:1034C0000B9067730398E08101202074032E01D1D3
:1034D000002001E04FF400708146A4F81190049898
:1034E000B0F5803F1AD20498A4F8130018E0000049
:1034F00044410000222A2B2C2E3A3B3C3D3E3F5BB0
:103500005D7C7F0040090020E4410000FA4100009A
:10351000EBFE904D53444F53352E300004982062FB
:103520000E9860753F202083FF206083C4F81CB094
:10353000FDF748FC0990032E17D10998C4F8430001
:10354000C4F824A00220E0620120208606206086C4
:10355000802084F84000292084F842001322F8A13A
:1035600004F14700FDF706FE10E00998C4F82700B3
:10357000A4F816A0802084F82400292084F82600CE
:103580001322F4A104F12B00FDF7F4FD4AF65520B7
:10359000A4F8FE0101235A4621460C98FDF7D2FA01
:1035A00008B101202FE6032E06D101230BF10602FC
:1035B00021460C98FDF7C6FA079808904FF00009CD
:1035C00047E06A8900212046FDF7EBFD0E9809903F
:1035D000032E0BD0012E01D1E34801E06FF0FF0074
:1035E000099908430990099820600AE0099860F059
:1035F000FF000990099820604FF0FF3060600009DB
:10360000A0600898411C02460123089121460C98AD
:10361000FDF798FA08B10120F5E56A8900212046F6
:10362000FDF7BFFD012009900EE00898411C0246FD
:103630000123089121460C98FDF784FA08B1012076
:10364000E1E50998401C099009985045EDD309F12E
:103650000109B9F1000FB4D0032E01D1384600E0C2
:103660000298814600BF0898411C02460123089138
:1036700021460C98FDF766FA08B10120C3E5A9F1CF
:1036800001005FEA0009EED1032E1DD1B74820608A
:10369000B748C4F8E401A8F10100C4F8E801022029
:1036A000C4F8EC014AF65520A4F8FE0101230BF101
:1036B000010221460C98FDF745FA01230BF10702A0
:1036C00021460C98FDF73EFA002211460C98FDF7B2
:1036D00096FA08B1012096E5002094E52DE9FC4713
:1036E00007468846914600253E4615E06B46012276
:1036F00001A94846FEF7ACFD0098012800D00FE074
:103700009DF804400D2C00D106E006F8014B6D1C1D
:103710000A2C00D104E000BFA8F10100A842E5DCBA
:1037200000BF0020307015B13846BDE8FC8700208E
:10373000FBE7F8B504460E460A2E03D10D212046BC
:10374000FFF7F7FF6568002D00DAF8BD28466D1C0D
:1037500004F10C010E543D2D0CDB6B462A4620680B
:10376000FEF745FE0098A84201D1002001E04FF08D
:10377000FF3005466560A068401CA06000BFE4E71C
:1037800030B595B004460D46029500200390049094
:10379000214602A8FFF7CDFF039800280DDB01ABFF
:1037A00005A9DDE90202FEF722FE30B9019903986E
:1037B000884202D1049815B030BD4FF0FF30FAE7CF
:1037C00030B595B004460D46029500200390049054
:1037D00004E014F8011B02A8FFF7ABFF20780028D3
:1037E000F7D1039800280DDB01AB05A9DDE9020242
:1037F000FEF7FDFD30B901990398884202D1049883
:1038000015B030BD4FF0FF30FAE70FB42DE9F04F9F
:103810009BB02498019000200290039026A81A9053
:1038200000BF259810F8014B259004B927E1252CFD
:1038300004D0214601A8FFF77CFFF2E700200646EE
:103840008146259810F8014B2590302C05D1012692
:10385000259810F8014B259006E02D2C04D1022666
:10386000259810F8014B259009E009EB890004EB3D
:103870004000A0F13009259810F8014B2590302C1C
:1038800001DB392CF1DD6C2C01D04C2C05D146F03C
:103890000406259810F8014B259004B9EFE0254661
:1038A000612D04DB7A2D02DCA5F12000C5B24F2D7D
:1038B00063D006DC422D5DD0432D38D0442D66D137
:1038C0005EE0532D04D0552D5BD0582D5FD15BE0C9
:1038D0001A9850F804BB1A904FF0000801E008F164
:1038E00001081BF808000028F9D106F0020048B9C9
:1038F00003E0202101A8FFF71CFF404608F1010862
:103900004845F6D304E01BF8011B01A8FFF711FF9F
:103910009BF800000028F6D103E0202101A8FFF762
:1039200008FF404608F101084845F6D379E71A98A0
:1039300010F8042BD1B21A9001A8FFF7FAFE70E735
:103940004E4F204E414D45202020204641543332D9
:10395000202020004E4F204E414D45202020204663
:10396000415420202020200000FFFF0052526141DE
:1039700072724161022019900EE0082019900BE04C
:1039800000BF0A20199007E01020199004E021469A
:1039900001A8FFF7CEFE44E700BF06F0040028B1FF
:1039A0001A9800681A99091D1A910CE0442D05D146
:1039B0001A9800681A99091D1A9104E01A9800686B
:1039C0001A99091D1A918246442D06D10AF0004029
:1039D00018B1CAF1000A46F00806002700BF19987E
:1039E000BAFBF0F100FB11A0C5B21998BAFBF0FACE
:1039F000092D06DD782C01D1272000E0072028447E
:103A0000C5B205F13000C2B238467F1C14A90A5471
:103A1000BAF1000F01D0102FE1D306F0080020B159
:103A20002D2238467F1C14A90A54B84606F001001E
:103A300008B1302000E02020054603E0294601A817
:103A4000FFF777FE06F0020020B9404608F10108B2
:103A50004845F3D300BF781E074614AA115C01A89D
:103A6000FFF767FE002FF6D103E0294601A8FFF714
:103A700060FE404608F101084845F6D3D1E600BF94
:103A800000201A900298002810DB18AB04A9DDE989
:103A90000102FEF7ACFC48B918990298884205D19A
:103AA00003981BB0BDE8F00F5DF814FB4FF0FF303A
:103AB000F7E7704770477047754600F029F8AE4643
:103AC00005006946534620F00700854618B020B52A
:103AD000FDF784F9BDE820404FF000064FF00007E5
:103AE0004FF000084FF0000B21F00701AC46ACE8A6
:103AF000C009ACE8C009ACE8C009ACE8C0098D4613
:103B000070470446AFF300802046FCF706FC000037
:103B1000004870476009002001491820ABBEFEE74D
:103B2000260002007047D0F8003412F0010F14BFD5
:103B30000B438B43C0F8003412F0020FD0F820245E
:103B400014BF114322EA0101C0F8201470472DE987
:103B5000F00301264FF0000C0325C2F3411706FACB
:103B60000CF40C4211D0D0F8C48F4FEA4C0405FA83
:103B700004F928EA0908C0F8C48FD0F8C48F07FAFE
:103B800004F448EA0404C0F8C44F0CF1010C0CF032
:103B9000FF0CBCF1080FE2D3D0F800C512F0010F02
:103BA00014BF4CEA010C2CEA010CC0F800C5D0F897
:103BB00004C512F0020F14BF4CEA010C2CEA010CF0
:103BC000C0F804C5D0F808C512F0040F14BF4CEAC1
:103BD000010C2CEA010CC0F808C5D0F818C512F089
:103BE000080F14BF4CEA010C2CEA010CC0F818C5F0
:103BF00012F0100FD0F83C2514BF0A438A43C0F8D6
:103C00003C25D0F80C2513F0010F14BF0A438A435A
:103C1000C0F80C25D0F8102513F0020F14BF0A438A
:103C20008A43C0F81025D0F8142513F0040F14BFF0
:103C30000A438A43C0F81425D0F81C2513F0080F56
:103C400014BF0A438A43C0F81C25D0F8442513F456
:103C5000007F14BF0A438A43C0F84425D0F84025AA
:103C600013F4407F14BF0A438A43C0F84025D0F8BC
:103C70002825002B0CBF114322EA0101C0F82815AA
:103C8000BDE8F003704700000E4AC0F30741D26E52
:103C900001238B401A420C4A1ABF02EBC10149684A
:103CA00052F83110020AD1F82C354FF00F0C0CFAF3
:103CB00002FC00F00F0023EA0C0390401843C1F807
:103CC0002C05704700E00F409043000030B50C46D3
:103CD000054608230122FFF73AFF21462846BDE8A2
:103CE00030400122FFF71FBF30B50C4605460222C7
:103CF000FFF719FF21462846BDE83040082301227E
:103D0000FFF725BF30B50C4605460222FFF70BFF33
:103D100021462846BDE8304008230122FFF717BF9F
:103D200040F821207047FCF710BBC068C0F30010BA
:103D3000704730B4022BDDE902540CBF4FF0080C81
:103D40004FF0000C002B18BF042343EA0C03436020
:103D5000B1FBF5FC0021891CBCFBF1F35B1EFF2BC2
:103D6000F9D801619107090E02F0300241EA0321FE
:103D70001143621E1143016030BC7047C26812F0EB
:103D8000040FFBD0806808607047C26812F0020F11
:103D9000FBD081607047416821F0020141607047AB
:103DA000416841F0020141607047000070B44E4D1F
:103DB0002B6E296F11F0004F14BF01F0700003F05B
:103DC0003000202808BF494818D005DC88B11028E9
:103DD00008BF474812D009E0302808BF47F23050EA
:103DE0000CD0702808BF4FF4004007D070BC0020F2
:103DF00070477C203F4A00EA131010584FF0FF3202
:103E000011F0004F02D011F4006F06D001F0004C09
:103E100003F400645CEA040C3BD1D5F860C1D5F82A
:103E2000644104F01F06C4F30424641C761C16FBD2
:103E300004F46400B0FBF4F0CCF309044443CCF385
:103E4000892C00FB0CF0D5F810C004EB902043F453
:103E500080030CF4704CBCF5804F08BF264A18D084
:103E60000EDCBCF5805F08BF244A12D0BCF5005FB1
:103E700008BF234A0DD0BCF5405F08BF214A08E0C7
:103E8000BCF5E04F08BF204A03D0BCF5104F08BF77
:103E90001E4A13F4800F21D011F0004F19D011F0F9
:103EA000804F09D011F4006F0CD001F0004C03F4E6
:103EB00000635CEA030305D0C1F3C551491CB0FBA4
:103EC000F1F00BE04000C1F38651491CB0FBF1F06A
:103ED00004E0C3F3C351491CB0FBF1F0824238BF88
:103EE000104670BC7047000000E00F4000093D0024
:103EF0000024F40028440000005A620200B4C40404
:103F0000AA40F90380F0FA0240787D01002D3101CA
:103F1000434B30B4196E1A6F21F4800141F40061F3
:103F200042F4006419661C6721EA000212F0010FD6
:103F300014D060F0010211409A159A651966D3F801
:103F400050C0D2021CF4807F08D1521E04BF30BC86
:103F50007047D3F850C01CF4807FF6D021F4FE6186
:103F600000F4FE621143DFF8BCC024F0700222F0BE
:103F7000004200EA0C0C4CEA020200F0080C42EA93
:103F8000CC0219661A6700F4005C21F4005122F497
:103F900000524CEA01014CEA02024FF0400CC3F817
:103FA00058C012F0004F08BF19661A6718BF19668B
:103FB00021F00101DFF870C021F0F86100EA0C0C7B
:103FC0004CEA010122F0FC5200F0FC5C4CEA0202D7
:103FD00010F0804F08BF22F0804209D0DFF84CC0BB
:103FE00022F4800200EA0C0C41F480014CEA020247
:103FF00010F4006F08BF4FF400400AD1D3F868C135
:104000001CF0010F01D1401EF8D121F4006122F40F
:10401000006219661A6730BC1020FCF785B90000F1
:1040200000E00F40300000800100C0070000404069
:10403000C0F307230749C0B2194401F07043C1F32C
:10404000130143EA411141EA800040F0007001226F
:104050000260704700E60F40C0F307220849C0B273
:10406000114401F07042C1F3130142EA411141EAE7
:10407000800040F000700068002818BF01207047E1
:1040800000E30F40816911F0100FFBD10068704709
:10409000826912F0200FFBD101607047D0F818C080
:1040A0001CF0080FFAD1D0F82CC02CF0100CC0F87E
:1040B0002CC0D0F830C02CF0010C2CF4407CC0F89F
:1040C00030C0D0F830C0B1EB021F34BF4CF0200C30
:1040D0002CF0200CC0F830C038BF5208C900B1FB2A
:1040E000F2F1491C49088A09426201F03F018162EC
:1040F000C36200218161C16A41F01001C162016B9C
:1041000040F20132114301637047C16A41F010016E
:10411000C162016B40F201321143016370474FF0FD
:104120004070E1EE100A70472047000000C00040D8
:1041300000D0004000E00040001800F0011800F03E
:10414000021800F0809A90418E418F804545454984
:1041500049498E8F9092924F994F555559999A9BF4
:104160009C9D9E9F41494F55A5A5A6A7A8A9AAAB6E
:10417000AC21AEAFB0B1B2B3B4B5B6B7B8B9BABB93
:10418000BCBDBEBFC0C1C2C3C4C5C6C7C8C9CACBF7
:10419000CCCDCECFD0D1D2D3D4D5D6D7D8D9DADBE7
:1041A000DCDDDEDFE0E1E2E3E4E5E6E7E8E9EAEBD7
:1041B000ECEDEEEFF0F1F2F3F4F5F6F7F8F9FAFBC7
:1041C000FCFDFEFF60470000544700005C47000014
:1041D0003C470000484700003447000040470000CB
:1041E0004C47000000040002000180004000200055
:1041F00010000800040002000000008000400020C1
:104200000010000800400020001000080004000218
:104210000040004010000000008005401000000039
:104220000050004011000000009005401100000007
:10423000006000401200000000A0054012000000D5
:10424000007000401300000000B0054013000000A3
:10425000004002401400000000C0054014000000AF
:10426000005002402E00000000D005402E0000004B
:10427000006002402F00000000E005402F00000019
:10428000007002403000000000F0054030000000E7
:1042900000D0034046000000000006404600000039
:1042A00000100640470000000020064048000000C3
:1042B000003006407F000000004006408000000003
:1042C0000050064084000000006006408C000000A2
:1042D0000040004010000000008005401000000079
:1042E0000050004011000000009005401100000047
:1042F000006000401200000000A005401200000015
:10430000007000401300000000B0054013000000E2
:10431000004002401400000000C0054014000000EE
:10432000005002402E00000000D005402E0000008A
:10433000006002402F00000000E005402F00000058
:10434000007002403000000000F005403000000026
:1043500000D003404300000000000640430000007E
:104360000010064044000000002006404500000008
:104370000030064058000000004006405900000090
:10438000005006405C000000006006406400000031
:104390000040004000800540005000400090054073
:1043A0000060004000A005400070004000B00540E3
:1043B0000040024000C005400050024000D00540CF
:1043C0000060024000E005400070024000F005403F
:1043D00000D00340000006400010064000100640D8
:1043E0000020064000200640003006400030064015
:1043F0000040064000400640005006400050064085
:1044000000600640006006400070064000700640F4
:104410000080064000800640009006400090064064
:1044200000D0121300389C1C40420F0000201C00DA
:1044300080841E0000802500999E360000403800D0
:1044400000093D0000803E0000004B00404B4C0046
:1044500000204E00808D5B0000C05D000080700079
:1044600000127A0000007D0080969800001BB700C3
:104470000080BB00C0E8CE00647ADA000024F400BB
:104480000000FA0080A81201002D310100366E01F3
:1044900040787D0140000000000000003E00080060
:1044A00000000000A00000000200000034540100E1
:1044B000000000002B700600000000002800000033
:1044C00000000000270001000000000020000000A4
:1044D0000000000050000000020000001AAC0000C4
:1044E0000000000017940900000000001698050065
:1044F000000000001400000000000000138008000D
:1045000000000000A00000000800000010000000F3
:104510000000000028000000020000004000000031
:104520000400000060000000000000005D000C00BE
:104530000000000050000000000000004E000200DB
:104540000000000041AC0100000000003C00000041
:10455000000000003A800900000000003000000068
:1045600000000000280000000000000027000100FB
:104570000000000023600600000000002160080029
:10458000000000001E000000000000001DC004002C
:1045900000000000500000000200000018000000B1
:1045A0000000000014000000000000006000000097
:1045B000040000000024F40030003000005A6202C1
:1045C0009100110000879303D200D20000B4C4040C
:1045D0001301130100E1F50554015401000E2707F2
:1045E0009501950146525F44454E494544000000FF
:1045F00046525F4C4F434B454400000046525F4ECD
:104600004F545F454E41424C4544000046525F576F
:10461000524954455F50524F54454354454400005D
:1046200046525F4D4B46535F41424F525445440002
:1046300046525F4E4F5F46494C45000046525F4927
:104640004E56414C49445F4E414D450046525F4EE7
:104650004F545F454E4F5547485F434F524500000A
:1046600046525F494E56414C49445F445249564573
:104670000000000046525F4E4F5F5041544800001A
:1046800046525F4F4B00000046525F4E4F5F464917
:104690004C4553595354454D0000000046525F4964
:1046A0004E56414C49445F504152414D455445524C
:1046B0000000000046525F4449534B5F4552520090
:1046C00046525F494E545F455252000046525F5475
:1046D0004F4F5F4D414E595F4F50454E5F46494CDD
:1046E0004553000046525F494E56414C49445F4F86
:1046F000424A45435400000046525F4558495354CE
:104700000000000046525F54494D454F555400008B
:1047100046525F4E4F545F524541445900000000DD
:104720003031323334353637383961626364656627
:104730000000000055534231000000005344310096
:104740005553423200000000534432005553423367
:10475000000000004E414E440000000043460000AF
:1047600052414D008447000000000020B4000000CA
:10477000C402000038480000B40000200C0A000009
:10478000E002000000000000804600000100000080
:10479000B446000002000000C04600000300000014
:1047A0001047000004000000304600000500000033
:1047B00074460000060000003C46000007000000B0
:1047C000E445000008000000F84600000900000071
:1047D000E44600000A0000000C4600000B00000048
:1047E000604600000C000000FC4500000D000000C9
:1047F000884600000E000000204600000F00000068
:104800000447000010000000F04500001100000007
:104810004C46000012000000CC46000013000000CF
:104820009C460000010000000000000000000000A5
:08483000000000000000000080
:04000005000002896C
:00000001FF
