:020000040000FA
:10000000D00700206D020000810200008302000082
:10001000850200008502000085020000000000004B
:100020000000000000000000000000008502000049
:10003000850200000000000085020000850200002B
:100040008502000085020000850200008502000094
:100050008502000085020000850200008502000084
:100060008502000085020000850200008502000074
:100070008502000085020000850200008502000064
:1000800085020000850200008B030000850200004D
:100090008502000085020000850200008502000044
:1000A0008502000085020000850200008502000034
:1000B0008502000085020000850200008502000024
:1000C0008502000085020000850200008502000014
:1000D0008502000085020000850200008502000004
:1000E0008502000000000000000000008502000002
:1000F00085020000850200008502000085020000E4
:1001000085020000850200008502000085020000D3
:1001100000000000000000008502000085020000D1
:1001200085020000850200008502000085020000B3
:1001300085020000850200008502000085020000A3
:1001400000000000000000000000000000000000AF
:100150008502000085020000850200008502000083
:10016000000000000000000000000000000000008F
:10017000000000000000000000000000000000007F
:10018000000000000000000000000000000000006F
:10019000000000000000000000000000000000005F
:1001A000000000000000000000000000000000004F
:1001B0008502000085020000850200008502000023
:1001C0008502000085020000850200008502000013
:1001D0008502000085020000850200008502000003
:1001E00085020000850200008502000085020000F3
:1001F00085020000850200008502000085020000E3
:100200008502000085020000850200000000000059
:1002100085020000850200008502000085020000C2
:1002200085020000850200008502000085020000B2
:1002300085020000850200008502000085020000A2
:100240008502000085020000850200008502000092
:100250008502000085020000850200008502000082
:100260008502000085020000850200004EF68850DD
:10027000CEF20000016841F47001016000F004B8A2
:10028000FEE7FEE7FEE7000000F002F800F04CF8A1
:100290000AA090E8000C82448344AAF10107DA45E1
:1002A00001D100F041F8AFF2090EBAE80F0013F0E7
:1002B000010F18BFFB1A43F0010318473C1200005E
:1002C0005C1200000A4410F8014B14F00F0508BF3F
:1002D00010F8015B240908BF10F8014B6D1E05D012
:1002E00010F8013B6D1E01F8013BF9D1641E03D0EB
:1002F000641E01F8015BFBD19142E4D3704700001A
:100300000023002400250026103A28BF78C1FBD81E
:10031000520728BF30C148BF0B6070471FB500F0BF
:100320005DFE1FBD10B510BD00F095FA1146FFF738
:10033000F5FF00F065F800F0B3FA03B4FFF7F2FF41
:1003400003BC00F0B7FA00000138FDD1704700008F
:10035000EFF3108072B67047EFF310807047EFF341
:10036000108062B6704730BF704780F311887047C5
:10037000EFF311807047000010B51021464800F0DF
:10038000C5FA00204549087010BD10B543480078F3
:1003900000B910BD4FF0804000F016FE10214FF064
:1003A000402000F0CFFB30B1002210214FF0402060
:1003B00000F0F5FB05E0102211464FF0402000F060
:1003C000EEFB00BFE5E710B5354800F081FD35488C
:1003D00000F07EFD012000F093FB40F2014000F0B0
:1003E0008FFB03214FF0402000F0CBFB00F02EFCF0
:1003F000044622464FF4E131002000F069F810BDB8
:1004000000F060FA00F066FA274800F0D1FC2448BA
:1004100000F05EFD10214FF0402000F0A4FB102200
:1004200011464FF0402000F0BAFB1D48401D00F07F
:100430004FFD1021184800F088FB002210211648BB
:1004400000F09AFA1021144800F063FAAFF2D701D5
:10045000114800F065FA4FF0704000F039FD00F0EF
:10046000D3FB222000F09EFB00F0F0FB0446214667
:100470004FF0804000F0ABFD4FF0804000F0A9FD50
:100480004FF0804000F09BFDFFF79DFF07A000F0BC
:10049000BDF900BFFEE70000005002400C00002044
:1004A000000800F0001800F04005C001737461728C
:1004B000742072756E200A0002480349014A034BFA
:1004C00070470000D0060020D0070020D006002092
:1004D00070B504460D461646D34951F8240000F085
:1004E0000BFD00B970BDD14850F82400D049086018
:1004F000CD4951F8240000F0EBFC60232A46314638
:10050000CB48006800F01AFDC948006800F04DFDB6
:1005100000BFE7E770B505460E4600240DE0285DF4
:100520000A2804D10D21C248006800F001FD295DB0
:10053000BF48006800F0FCFC641CB442EFD32046C6
:1005400070BD2DE9F04106460F4600257F1E2CE0C8
:10055000B748006800F0E6FC44B2082C06D125B18B
:100560000321B4A0FFF7D6FF6D1E1EE00A2C06D1B2
:10057000B148007818B10020AF49087015E00D2C83
:1005800003D00A2C01D01B2C05D10D2C02D1012047
:10059000A94908700AE0BD4206D274556D1CE1B24B
:1005A000A348006800F0C4FC00BFD1E700BF0020F2
:1005B00070550221A1A0FFF7ADFF2846BDE8F081EC
:1005C00010B59B48006800F0ADFCC0B210BD2DE92D
:1005D000F34F85B0064612E1002400E0641C305D54
:1005E000252802D0305D0028F8D121463046FFF79B
:1005F00091FF264430782528EDD1761C00254FF058
:10060000200B00BF16F8011B382932D014DC332927
:100610002AD008DC25296FD0302922D0312921D0D9
:1006200032296AD11FE034291FD035291ED036293E
:100630001DD03729F5D11BE0692935D008DC3929CF
:1006400018D0582972D0632922D06429E9D12AE030
:1006500070296CD073293CD0752958D07829E0D105
:1006600063E000BF00BF00BF00BF00BF00BF00BF0E
:1006700000BF00BF16F8010C302801D105B9834630
:1006800005EB8500450016F8010C30380544B9E744
:100690000698006804900698001D0690012104A8A1
:1006A000FFF738FFAAE000BF06980068049006989C
:1006B000001D06904FF000080498002805DA049801
:1006C000404204904FF0010901E04FF000090A2771
:1006D00039E0069850F804AB0690002400E0641C52
:1006E0001AF804000028FAD121465046FFF712FFFD
:1006F000A5420BD92D1B05E076E07AE0012150A040
:10070000FFF708FF2800A5F10105F7D176E006986C
:10071000006804900698001D06904FF000080A2714
:100720004FF000090FE001E001E000BF00BF0698B4
:10073000006804900698001D06904FF000081027EE
:100740004FF0000900BF012401E07C436D1E04FB53
:1007500007F00499884205D804FB07F0B0FBF7F0D6
:10076000A042F2D0B9F1000F00D06D1EB9F1000F18
:100770000AD0BBF1300F07D12D22404608F1010805
:100780000DF800204FF00009012D0BD9102D09D2D2
:100790006D1E05E0404608F101080DF800B06D1E21
:1007A000002DF7D1B9F1000F05D02D22404608F1F8
:1007B00001080DF8002010E00498B0FBF4F0B0FB45
:1007C000F7F107FB11001F4909680A5C404608F170
:1007D00001080DF80020B4FBF7F4002CECD14146E1
:1007E0006846FFF797FE09E0701E0121FFF792FEB1
:1007F00004E0052114A0FFF78DFE00BF00BF307894
:1008000000287FF4E9AE07B0BDE8F08F0FB408B55B
:1008100003A8009000990298FFF7D9FE00200090ED
:1008200001B05DF814FB0000F80F0000EC0F0000B1
:100830001000002008200800140000200D0A00000D
:1008400020000000E80F00004552524F5200000007
:10085000704770477047754600F028F8AE460500AF
:100860006946534620F00700854618B020B5FFF7CB
:1008700023FEBDE820404FF000064FF000074FF088
:1008800000084FF0000B21F00701AC46ACE8C009AE
:10089000ACE8C009ACE8C009ACE8C0098D467047B7
:1008A0000446AFF300802046FFF747FD004870473D
:1008B0006C06002001491820ABBEFEE726000200AE
:1008C000704700000248016841F470010160704700
:1008D00088ED00E00248016841F040410160704746
:1008E00034EF00E0D0F8003412F0010F14BF0B43D6
:1008F0008B43C0F8003412F0020FD0F8202414BF4C
:10090000114322EA0101C0F820147047C0F81C14FA
:100910007047D0F810241143C0F81014704700003D
:10092000124A10B5104B12684FF0180C104C2240B0
:10093000A2F18054B4F5202408BF0E4B002253F8D6
:100940003240844203D103EBC200446803E0521CEE
:100950006245F4D30024204600F05EF92046BDE84D
:10096000104000F01FB900000410000000E00F402C
:100970000000FF70C4100000D0F8083412F0010F1E
:1009800014BF0B438B43C0F80834D0F8043412F082
:10099000020F14BF0B438B43C0F80434D0F80C345F
:1009A00012F0040F14BF194323EA0101C0F80C141C
:1009B000D0F8381512F4803F14BF41F0010121F046
:1009C0000101C0F8381570472DE9F00301264FF0FA
:1009D000000C0325C2F3411706FA0CF40C4211D0A7
:1009E000D0F8C48F4FEA4C0405FA04F928EA090844
:1009F000C0F8C48FD0F8C48F07FA04F448EA04049E
:100A0000C0F8C44F0CF1010C0CF0FF0CBCF1080F46
:100A1000E2D3D0F800C512F0010F14BF4CEA010C6C
:100A20002CEA010CC0F800C5D0F804C512F0020F82
:100A300014BF4CEA010C2CEA010CC0F804C5D0F834
:100A400008C512F0040F14BF4CEA010C2CEA010C8B
:100A5000C0F808C5D0F818C512F0080F14BF4CEA4A
:100A6000010C2CEA010CC0F818C512F0100FD0F8D8
:100A70003C2514BF0A438A43C0F83C25D0F80C2516
:100A800013F0010F14BF0A438A43C0F80C25D0F8B5
:100A9000102513F0020F14BF0A438A43C0F8102533
:100AA000D0F8142513F0040F14BF0A438A43C0F88A
:100AB0001425D0F81C2513F0080F14BF0A438A43ED
:100AC000C0F81C25D0F8442513F4007F14BF0A4356
:100AD0008A43C0F84425D0F8402513F4407F14BF62
:100AE0000A438A43C0F84025D0F82825002B0CBFC4
:100AF000114322EA0101C0F82815BDE8F003704750
:100B00000E4AC0F30741D26E01238B401A420C4AB1
:100B10001ABF02EBC101496852F83110020AD1F83C
:100B20002C354FF00F0C0CFA02FC00F00F0023EAFA
:100B30000C0390401843C1F82C05704700E00F40AB
:100B40008411000050F82100704730B50C4605466E
:100B50000022FFF7C7FE21462846BDE830400823A3
:100B60000122FFF731BF30B50C46054608230122AC
:100B7000FFF72AFF21462846BDE830400122FFF753
:100B8000B1BE30B50C4605460222FFF7ABFE21464A
:100B90002846BDE8304008230122FFF715BF40F882
:100BA000212070471649042804BF086840F48030AB
:100BB00018D0052804BF086840F4003012D0062879
:100BC00012D00F2815D0102838BF7047103800F009
:100BD0001F01012202FA01F142090A4850F82200DD
:100BE0000160704708607047086840F48020086022
:100BF00070474FF0E020016941F002010161704748
:100C000024ED00E0D012000010B5FFF7A8FB00288B
:100C100018BF012010BD000030B40A4D2A680A4BED
:100C20009A421CBFD5F800C0002207D05CF82240D1
:100C300043F82240521C9B2AF8D32B6043F8201023
:100C400030BC704708ED00E00004002070B44E4D49
:100C50002B6E296F11F0004F14BF01F0700003F0EC
:100C60003000202808BF494818D005DC88B110287A
:100C700008BF474812D009E0302808BF47F230507B
:100C80000CD0702808BF4FF4004007D070BC002083
:100C900070477C203F4A00EA131010584FF0FF3293
:100CA00011F0004F02D011F4006F06D001F0004C9B
:100CB00003F400645CEA040C3BD1D5F860C1D5F8BC
:100CC000644104F01F06C4F30424641C761C16FB64
:100CD00004F46400B0FBF4F0CCF309044443CCF317
:100CE000892C00FB0CF0D5F810C004EB902043F4E5
:100CF00080030CF4704CBCF5804F08BF264A18D016
:100D00000EDCBCF5805F08BF244A12D0BCF5005F42
:100D100008BF234A0DD0BCF5405F08BF214A08E058
:100D2000BCF5E04F08BF204A03D0BCF5104F08BF08
:100D30001E4A13F4800F21D011F0004F19D011F08A
:100D4000804F09D011F4006F0CD001F0004C03F477
:100D500000635CEA030305D0C1F3C551491CB0FB35
:100D6000F1F00BE04000C1F38651491CB0FBF1F0FB
:100D700004E0C3F3C351491CB0FBF1F0824238BF19
:100D8000104670BC7047000000E00F4000093D00B5
:100D90000024F40028130000005A620200B4C404C6
:100DA000AA40F90380F0FA0240787D01002D31015C
:100DB000434B30B4196E1A6F21F4800141F4006185
:100DC00042F4006419661C6721EA000212F0010F68
:100DD00014D060F0010211409A159A651966D3F893
:100DE00050C0D2021CF4807F08D1521E04BF30BC18
:100DF0007047D3F850C01CF4807FF6D021F4FE6118
:100E000000F4FE621143DFF8BCC024F0700222F04F
:100E1000004200EA0C0C4CEA020200F0080C42EA24
:100E2000CC0219661A6700F4005C21F4005122F428
:100E300000524CEA01014CEA02024FF0400CC3F8A8
:100E400058C012F0004F08BF19661A6718BF19661C
:100E500021F00101DFF870C021F0F86100EA0C0C0C
:100E60004CEA010122F0FC5200F0FC5C4CEA020268
:100E700010F0804F08BF22F0804209D0DFF84CC04C
:100E800022F4800200EA0C0C41F480014CEA0202D8
:100E900010F4006F08BF4FF400400AD1D3F868C1C6
:100EA0001CF0010F01D1401EF8D121F4006122F4A1
:100EB000006219661A6730BC1020FFF745BA0000BF
:100EC00000E00F40300000800100C00700004040FB
:100ED000C0F307230749C0B2194401F07043C1F3BE
:100EE000130143EA411141EA800040F00070012201
:100EF0000260704700E60F40C0F307220849C0B205
:100F0000114401F07042C1F3130142EA411141EA78
:100F1000800040F000700068002818BF0120704772
:100F200000E30F40816911F0100FFBD1006870479A
:100F3000826912F0200FFBD101607047D0F818C011
:100F40001CF0080FFAD1D0F82CC02CF0100CC0F80F
:100F50002CC0D0F830C02CF0010C2CF4407CC0F830
:100F600030C0D0F830C0B1EB021F34BF4CF0200CC1
:100F70002CF0200CC0F830C038BF5208C900B1FBBB
:100F8000F2F1491C49088A09426201F03F0181627D
:100F9000C36200218161C16A41F01001C162016B2D
:100FA00040F20132114301637047C16A41F0100100
:100FB000C162016B40F201321143016370478168E5
:100FC00041F00101816070470121C16070470160FB
:100FD0007047816841F00201816070474FF04070B6
:100FE000E1EE100A70470000E414000000C0004069
:100FF00000D0004000E00040001800F0011800F0B0
:10100000021800F000400040100000000080054081
:10101000100000000050004011000000009005404A
:1010200011000000006000401200000000A0054018
:1010300012000000007000401300000000B00540E6
:1010400013000000004002401400000000C00540F2
:1010500014000000005002402E00000000D00540A7
:101060002E000000006002402F00000000E005405C
:101070002F000000007002403000000000F005402A
:101080003000000000D00340460000000000064091
:101090004600000000100640470000000020064007
:1010A00048000000003006407F000000004006407D
:1010B00080000000005006408400000000600640F0
:1010C0008C0000000040004010000000008005403F
:1010D000100000000050004011000000009005408A
:1010E00011000000006000401200000000A0054058
:1010F00012000000007000401300000000B0054026
:1011000013000000004002401400000000C0054031
:1011100014000000005002402E00000000D00540E6
:101120002E000000006002402F00000000E005409B
:101130002F000000007002403000000000F0054069
:101140003000000000D003404300000000000640D3
:10115000430000000010064044000000002006404C
:1011600045000000003006405800000000400640E6
:1011700059000000005006405C000000006006407E
:101180006400000000400040008005400050004026
:10119000009005400060004000A005400070004045
:1011A00000B005400040024000C005400050024031
:1011B00000D005400060024000E0054000700240A1
:1011C00000F0054000D0034000000640001006403B
:1011D0000010064000200640002006400030064077
:1011E00000300640004006400040064000500640E7
:1011F0000050064000600640006006400070064057
:1012000000700640008006400080064000900640C6
:1012100000900640000700000006000000050000E6
:1012200000040000000300000002000000010000B4
:10123000000000000000000018ED00E01CED00E0E0
:1012400020ED00E000E400E004E400E008E400E059
:101250000CE400E010E400E014E400E018E400E036
:101260001CE400E020E400E024E400E028E400E0E6
:101270002CE400E030E400E034E400E038E400E096
:101280003CE400E040E400E044E400E048E400E046
:101290004CE400E050E400E054E400E058E400E0F6
:1012A0005CE400E060E400E064E400E068E400E0A6
:1012B0006CE400E070E400E074E400E078E400E056
:1012C0007CE400E080E400E084E400E088E400E006
:1012D00000E100E004E100E008E100E00CE100E0F2
:1012E00010E100E080E100E084E100E088E100E05E
:1012F0008CE100E090E100E000E200E004E200E0C8
:1013000008E200E00CE200E010E200E080E200E031
:1013100084E200E088E200E08CE200E090E200E09D
:1013200000D0121300389C1C40420F0000201C000B
:1013300080841E0000802500999E36000040380001
:1013400000093D0000803E0000004B00404B4C0077
:1013500000204E00808D5B0000C05D0000807000AA
:1013600000127A0000007D0080969800001BB700F4
:101370000080BB00C0E8CE00647ADA000024F400EC
:101380000000FA0080A81201002D310100366E0124
:1013900040787D0140000000000000003E00080091
:1013A00000000000A0000000020000003454010012
:1013B000000000002B700600000000002800000064
:1013C00000000000270001000000000020000000D5
:1013D0000000000050000000020000001AAC0000F5
:1013E0000000000017940900000000001698050096
:1013F000000000001400000000000000138008003E
:1014000000000000A0000000080000001000000024
:101410000000000028000000020000004000000062
:101420000400000060000000000000005D000C00EF
:101430000000000050000000000000004E0002000C
:101440000000000041AC0100000000003C00000072
:10145000000000003A800900000000003000000099
:10146000000000002800000000000000270001002C
:10147000000000002360060000000000216008005A
:10148000000000001E000000000000001DC004005D
:1014900000000000500000000200000018000000E2
:1014A00000000000140000000000000060000000C8
:1014B000040000000024F40030003000005A6202F2
:1014C0009100110000879303D200D20000B4C4043D
:1014D0001301130100E1F50554015401000E270723
:1014E0009501950130313233343536373839616200
:1014F000636465660000000018150000000000200D
:101500006C060000C4020000281500006C060020D4
:101510006401000000030000D102FF0101FF01FF90
:0815200001FF01FF01FF016C56
:04000005000002896C
:00000001FF
