:020000040000FA
:10000000680100206D0200008102000083020000F0
:10001000850200008502000085020000000000004B
:100020000000000000000000000000008502000049
:10003000850200000000000085020000850200002B
:100040008502000085020000850200008502000094
:100050008502000085020000850200008502000084
:100060008502000085020000850200008502000074
:100070008502000085020000850200008502000064
:100080008502000085020000850200008502000054
:100090008502000085020000850200008502000044
:1000A000850200005903000085020000850200005F
:1000B0008502000085020000850200008502000024
:1000C0008502000085020000850200008502000014
:1000D0008502000085020000850200008502000004
:1000E0008502000000000000000000008502000002
:1000F00085020000850200008502000085020000E4
:1001000085020000850200008502000085020000D3
:1001100000000000000000008502000085020000D1
:1001200085020000850200008502000085020000B3
:1001300085020000850200008502000085020000A3
:1001400000000000000000000000000000000000AF
:100150008502000085020000850200008502000083
:10016000000000000000000000000000000000008F
:10017000000000000000000000000000000000007F
:10018000000000000000000000000000000000006F
:10019000000000000000000000000000000000005F
:1001A000000000000000000000000000000000004F
:1001B0008502000085020000850200008502000023
:1001C0008502000085020000850200008502000013
:1001D0008502000085020000850200008502000003
:1001E00085020000850200008502000085020000F3
:1001F00085020000850200008502000085020000E3
:100200008502000085020000850200000000000059
:1002100085020000850200008502000085020000C2
:1002200085020000850200008502000085020000B2
:1002300085020000850200008502000085020000A2
:100240008502000085020000850200008502000092
:100250008502000085020000850200008502000082
:100260008502000085020000850200004EF68850DD
:10027000CEF20000016841F47001016000F004B8A2
:10028000FEE7FEE7FEE7000000F002F800F03CF8B1
:100290000AA090E8000C82448344AAF10107DA45E1
:1002A00001D100F031F8AFF2090EBAE80F0013F0F7
:1002B000010F18BFFB1A43F001031847340900006F
:1002C00054090000103A24BF78C878C1FAD8520700
:1002D00024BF30C830C144BF04680C6070470000C0
:1002E0000023002400250026103A28BF78C1FBD83F
:1002F000520728BF30C148BF0B6070471FB500F0E0
:10030000E3FA1FBD10B510BD00F0BDF81146FFF7B0
:10031000F5FF00F02AF800F0DBF803B4FFF7F2FF76
:1003200003BC00F0DFF800000138FDD17047000089
:10033000EFF3108072B67047EFF310807047EFF361
:10034000108062B6704730BF704780F311887047E5
:10035000EFF311807047000010B50021384800F01D
:10036000CCF801203749087010BD374800F008FA72
:10037000364800F095FA364836490860081D00688E
:1003800040F00100091D08600020091F08600121DC
:10039000314800F0A9F9012211462F4800F0B2F9C6
:1003A0002A48401F00F07CFA10214FF0402000F056
:1003B0009BF9102211464FF0402000F0A3F923488A
:1003C000C01E00F06DFA254800F06AFA244800F0DB
:1003D0005BF94021234800F079F98021214800F0A1
:1003E00075F94FF44371164800F093F840F20C424F
:1003F0000021134800F07DF8292000F087F9002142
:100400000F4800F07FF800F0B3F918E00D480078CD
:10041000012814D100200B4908700021084800F081
:100420007AF830B1102211464FF0402000F06AF9FE
:1004300005E0002210214FF0402000F063F9E5E7CD
:1004400000C00340000000204005C001050800F086
:100450004B434F4C2055024000500240003C00F0FE
:10046000090005000060004002480349014A034BAF
:10047000704700006800002068010020680000202C
:10048000704770477047754600F028F8AE46050083
:100490006946534620F00700854618B020B5FFF79F
:1004A000E3FFBDE820404FF000064FF000074FF09B
:1004B00000084FF0000B21F00701AC46ACE8C00982
:1004C000ACE8C009ACE8C009ACE8C0098D4670478B
:1004D0000446AFF300802046FFF71FFF0048704737
:1004E0000400002001491820ABBEFEE726000200F0
:1004F000704700EB411042627047012202FA01F19D
:10050000016070478268012303FA01F111438160A1
:1005100070470161704700EB4110006A10F0020063
:1005200018BF01207047D0F8003412F0010F14BF3B
:100530000B438B43C0F8003412F0020FD0F8202494
:1005400014BF114322EA0101C0F8201470472DE9BD
:10055000F00301264FF0000C0325C2F3411706FA01
:100560000CF40C4211D0D0F8C48F4FEA4C0405FAB9
:1005700004F928EA0908C0F8C48FD0F8C48F07FA34
:1005800004F448EA0404C0F8C44F0CF1010C0CF068
:10059000FF0CBCF1080FE2D3D0F800C512F0010F38
:1005A00014BF4CEA010C2CEA010CC0F800C5D0F8CD
:1005B00004C512F0020F14BF4CEA010C2CEA010C26
:1005C000C0F804C5D0F808C512F0040F14BF4CEAF7
:1005D000010C2CEA010CC0F808C5D0F818C512F0BF
:1005E000080F14BF4CEA010C2CEA010CC0F818C526
:1005F00012F0100FD0F83C2514BF0A438A43C0F80C
:100600003C25D0F80C2513F0010F14BF0A438A4390
:10061000C0F80C25D0F8102513F0020F14BF0A43C0
:100620008A43C0F81025D0F8142513F0040F14BF26
:100630000A438A43C0F81425D0F81C2513F0080F8C
:1006400014BF0A438A43C0F81C25D0F8442513F48C
:10065000007F14BF0A438A43C0F84425D0F84025E0
:1006600013F4407F14BF0A438A43C0F84025D0F8F2
:100670002825002B0CBF114322EA0101C0F82815E0
:10068000BDE8F003704700000E4AC0F30741D26E88
:1006900001238B401A420C4A1ABF02EBC101496880
:1006A00052F83110020AD1F82C354FF00F0C0CFA29
:1006B00002FC00F00F0023EA0C0390401843C1F83D
:1006C0002C05704700E00F40540A000030B50C467E
:1006D00005460022FFF727FF21462846BDE83040A7
:1006E00000230122FFF733BF30B50C46054608232F
:1006F0000122FFF72CFF21462846BDE830400122A9
:10070000FFF711BF40F82120704700001649042868
:1007100004BF086840F4803018D0052804BF08687A
:1007200040F4003012D0062812D00F2815D010281F
:1007300038BF7047103800F01F01012202FA01F1A2
:1007400042090A4850F8220001607047086070476B
:10075000086840F48020086070474FF0E02001698D
:1007600041F002010161704724ED00E0A00B0000A0
:1007700010B5FFF7E4FD002818BF012010BD0000F0
:10078000434B30B4196E1A6F21F4800141F40061BB
:1007900042F4006419661C6721EA000212F0010F9E
:1007A00014D060F0010211409A159A651966D3F8C9
:1007B00050C0D2021CF4807F08D1521E04BF30BC4E
:1007C0007047D3F850C01CF4807FF6D021F4FE614E
:1007D00000F4FE621143DFF8BCC024F0700222F086
:1007E000004200EA0C0C4CEA020200F0080C42EA5B
:1007F000CC0219661A6700F4005C21F4005122F45F
:1008000000524CEA01014CEA02024FF0400CC3F8DE
:1008100058C012F0004F08BF19661A6718BF196652
:1008200021F00101DFF870C021F0F86100EA0C0C42
:100830004CEA010122F0FC5200F0FC5C4CEA02029E
:1008400010F0804F08BF22F0804209D0DFF84CC082
:1008500022F4800200EA0C0C41F480014CEA02020E
:1008600010F4006F08BF4FF400400AD1D3F868C1FC
:100870001CF0010F01D1401EF8D121F4006122F4D7
:10088000006219661A6730BC1020FFF74DBD0000EA
:1008900000E00F40300000800100C0070000404031
:1008A000C0F307230749C0B2194401F07043C1F3F4
:1008B000130143EA411141EA800040F00070012237
:1008C0000260704700E60F404FF04070E1EE100A02
:1008D000704700000040004010000000008005400C
:1008E0001000000000500040110000000090054082
:1008F00011000000006000401200000000A0054050
:1009000012000000007000401300000000B005401D
:1009100013000000004002401400000000C0054029
:1009200014000000005002402E00000000D00540DE
:100930002E000000006002402F00000000E0054093
:100940002F000000007002403000000000F0054061
:100950003000000000D003404600000000000640C8
:10096000460000000010064047000000002006403E
:1009700048000000003006407F00000000400640B4
:100980008000000000500640840000000060064027
:100990008C00000000400040100000000080054076
:1009A00010000000005000401100000000900540C1
:1009B00011000000006000401200000000A005408F
:1009C00012000000007000401300000000B005405D
:1009D00013000000004002401400000000C0054069
:1009E00014000000005002402E00000000D005401E
:1009F0002E000000006002402F00000000E00540D3
:100A00002F000000007002403000000000F00540A0
:100A10003000000000D0034043000000000006400A
:100A20004300000000100640440000000020064083
:100A3000450000000030064058000000004006401D
:100A400059000000005006405C00000000600640B5
:100A5000640000000040004000800540005000405D
:100A6000009005400060004000A00540007000407C
:100A700000B005400040024000C005400050024068
:100A800000D005400060024000E0054000700240D8
:100A900000F0054000D00340000006400010064072
:100AA00000100640002006400020064000300640AE
:100AB000003006400040064000400640005006401E
:100AC000005006400060064000600640007006408E
:100AD00000700640008006400080064000900640FE
:100AE000009006400007000000060000000500001E
:100AF00000040000000300000002000000010000EC
:100B0000000000000000000018ED00E01CED00E017
:100B100020ED00E000E400E004E400E008E400E090
:100B20000CE400E010E400E014E400E018E400E06D
:100B30001CE400E020E400E024E400E028E400E01D
:100B40002CE400E030E400E034E400E038E400E0CD
:100B50003CE400E040E400E044E400E048E400E07D
:100B60004CE400E050E400E054E400E058E400E02D
:100B70005CE400E060E400E064E400E068E400E0DD
:100B80006CE400E070E400E074E400E078E400E08D
:100B90007CE400E080E400E084E400E088E400E03D
:100BA00000E100E004E100E008E100E00CE100E029
:100BB00010E100E080E100E084E100E088E100E095
:100BC0008CE100E090E100E000E200E004E200E0FF
:100BD00008E200E00CE200E010E200E080E200E069
:100BE00084E200E088E200E08CE200E090E200E0D5
:100BF000100C00000000002004000000C4020000EF
:100C0000140C00000400002064010000E002000059
:040C100000000000E0
:04000005000002896C
:00000001FF
