:020000040000FA
:10000000702500206D0200008102000083020000C4
:10001000850200008502000085020000000000004B
:100020000000000000000000000000008502000049
:10003000850200000000000085020000850200002B
:100040008502000085020000850200008502000094
:100050008502000085020000850200008502000084
:100060008502000085020000850200008502000074
:100070008502000085020000850200008502000064
:100080008502000085020000850200008502000054
:100090008502000085020000850200008502000044
:1000A0008502000085020000850200008502000034
:1000B0008502000085020000850200008502000024
:1000C0008502000085020000850200008502000014
:1000D0008502000085020000850200008502000004
:1000E0008502000000000000000000008502000002
:1000F0008502000085020000850200003103000037
:1001000085020000850200008502000085020000D3
:1001100000000000000000008502000085020000D1
:1001200085020000850200008502000085020000B3
:1001300085020000850200008502000085020000A3
:1001400000000000000000000000000000000000AF
:100150008502000085020000850200008502000083
:10016000000000000000000000000000000000008F
:10017000000000000000000000000000000000007F
:10018000000000000000000000000000000000006F
:10019000000000000000000000000000000000005F
:1001A000000000000000000000000000000000004F
:1001B0008502000085020000850200008502000023
:1001C0008502000085020000850200008502000013
:1001D0008502000085020000850200008502000003
:1001E00085020000850200008502000085020000F3
:1001F00085020000850200008502000085020000E3
:100200008502000085020000850200000000000059
:1002100085020000850200008502000085020000C2
:1002200085020000850200008502000085020000B2
:1002300085020000850200008502000085020000A2
:100240008502000085020000850200008502000092
:100250008502000085020000850200008502000082
:100260008502000085020000850200004EF68850DD
:10027000CEF20000016841F47001016000F004B8A2
:10028000FEE7FEE7FEE7000000F002F800F03CF8B1
:100290000AA090E8000C82448344AAF10107DA45E1
:1002A00001D100F031F8AFF2090EBAE80F0013F0F7
:1002B000010F18BFFB1A43F001031847A8060000FE
:1002C000C8060000103A24BF78C878C1FAD852078F
:1002D00024BF30C830C144BF04680C6070470000C0
:1002E0000023002400250026103A28BF78C1FBD83F
:1002F000520728BF30C148BF0B6070471FB500F0E0
:10030000A5FA1FBD10B510BD00F0A1F81146FFF70A
:10031000F5FF00F060F800F0BFF803B4FFF7F2FF5C
:1003200003BC00F0C3F800000138FDD170470000A5
:1003300010B500F085FA044634B100F07BFA33487A
:100340000068401C3149086010BD38B51E2000F01F
:1003500007FA0446A4B92E480068401C2C490860DE
:100360004FF480602B4B2C4A022100901E2000F09D
:1003700015FA1E2000F0EAF91E2000F005FA04E04C
:1003800026480068401C2549086038BD38B500245F
:1003900003E0214840F82440641CB4F5806FF8D392
:1003A0003E2000F093F80F211E2000F09BF91C491D
:1003B0001E2000F0BBF94FF48060164B164A022154
:1003C00000901E2000F0EAF91E2000F0BFF91E2068
:1003D00000F0DAF938BD00F071F8124800F0A8F822
:1003E000012000F035F9104800F054F90E4800F0F3
:1003F00065F93F2000F06AF800F016FA0B4800F0AB
:100400000DFAFFF7C3FF00BFFEE700000000002069
:10041000080000200C1000200C0000200400002028
:1004200000C000AA4005C001000C00F00C20002014
:1004300002480349014A034B704700007024002022
:100440007025002070240020704770477047754663
:1004500000F028F8AE4605006946534620F0070034
:10046000854618B020B5FFF7E3FFBDE820404FF008
:1004700000064FF000074FF000084FF0000B21F08E
:100480000701AC46ACE8C009ACE8C009ACE8C0095B
:10049000ACE8C0098D4670470446AFF300802046A3
:1004A000FFF73BFF004870470C240020014918204B
:1004B000ABBEFEE72600020070470000024801685C
:1004C00041F040410160704734EF00E016490428D4
:1004D00004BF086840F4803018D0052804BF0868BD
:1004E00040F4003012D0062812D00F2815D0102862
:1004F00038BF7047103800F01F01012202FA01F1E5
:1005000042090A4850F822000160704708607047AD
:10051000086840F48020086070474FF0E0200169CF
:1005200041F002010161704724ED00E01409000070
:10053000434B30B4196E1A6F21F4800141F400610D
:1005400042F4006419661C6721EA000212F0010FF0
:1005500014D060F0010211409A159A651966D3F81B
:1005600050C0D2021CF4807F08D1521E04BF30BCA0
:100570007047D3F850C01CF4807FF6D021F4FE61A0
:1005800000F4FE621143DFF8BCC024F0700222F0D8
:10059000004200EA0C0C4CEA020200F0080C42EAAD
:1005A000CC0219661A6700F4005C21F4005122F4B1
:1005B00000524CEA01014CEA02024FF0400CC3F831
:1005C00058C012F0004F08BF19661A6718BF1966A5
:1005D00021F00101DFF870C021F0F86100EA0C0C95
:1005E0004CEA010122F0FC5200F0FC5C4CEA0202F1
:1005F00010F0804F08BF22F0804209D0DFF84CC0D5
:1006000022F4800200EA0C0C41F480014CEA020260
:1006100010F4006F08BF4FF400400AD1D3F868C14E
:100620001CF0010F01D1401EF8D121F4006122F429
:10063000006219661A6730BC1020FFF775BE000013
:1006400000E00F40300000800100C0070000404083
:100650000E490A680E4B1A40A2F18053B3F5A0234D
:100660000AD00028D1F8B0000CBF20F0005040F0B4
:100670000050C1F8B00070470028086E14BF40F069
:10068000006020F0006008667047000000E00F4046
:100690000000FF70C0F307230749C0B2194401F0FE
:1006A0007043C1F3130143EA411141EA800040F075
:1006B000007001220260704700E60F40C0F307237C
:1006C0000749C0B2194401F07043C1F3130143EA72
:1006D000411141EA800040F0007001220260704741
:1006E00000E70F40104B00F01F0011F0010F4FF01A
:1006F00001021CBF02FA00FCC3F81CC011F0020F7B
:100700001CBF02FA00FCC3F834C011F0040F1CBF78
:1007100002FA00FCC3F83CC011F0080F1CBF02FA3B
:1007200000F058627047000000F00F4000F03F02F8
:100730000448806800EB02108268034B1A401143A2
:100740008160704700F00F40F73FFC0000F01F0091
:10075000012101FA00F001498862704700F00F4062
:10076000084900F03F00896801EB0010806800F044
:10077000070020F00101042914BF062920F0010020
:100780007047000000F00F4000F01F00012101FA47
:1007900000F001494861704700F00F40F0B400F0EC
:1007A0003F0C1D48049D866806EB0C1084681CF005
:1007B000200F24F0F70424F47C5404D0042914BF3F
:1007C000062941F001016FF00F0707EB05170F43F2
:1007D0003C4304F04067B7F1406F04D0BF0E05FA08
:1007E00007F73A44521E026004F04042B2F1404F13
:1007F0000ED0042911BF06294CF0200106EB01118F
:1008000001F10C031FBF910F05FA01F119444B1EB2
:1008100084604360F0BC704700F00F40014988607D
:100820007047000000F00F40014901204860704708
:1008300000F00F4001490120C864704700F00F40EC
:100840000148C06C7047000000F00F404FF040704E
:10085000E1EE100A704700000007000000060000EB
:10086000000500000004000000030000000200007A
:1008700000010000000000000000000018ED00E092
:100880001CED00E020ED00E000E400E004E400E006
:1008900008E400E00CE400E010E400E014E400E010
:1008A00018E400E01CE400E020E400E024E400E0C0
:1008B00028E400E02CE400E030E400E034E400E070
:1008C00038E400E03CE400E040E400E044E400E020
:1008D00048E400E04CE400E050E400E054E400E0D0
:1008E00058E400E05CE400E060E400E064E400E080
:1008F00068E400E06CE400E070E400E074E400E030
:1009000078E400E07CE400E080E400E084E400E0DF
:1009100088E400E000E100E004E100E008E100E03C
:100920000CE100E010E100E080E100E084E100E0A3
:1009300088E100E08CE100E090E100E000E200E00E
:1009400004E200E008E200E00CE200E010E200E077
:1009500080E200E084E200E088E200E08CE200E077
:1009600090E200E084090000000000200C0000007C
:10097000C4020000900900000C0000206425000063
:10098000E002000000000000000000000000000085
:04000005000002896C
:00000001FF
