:020000040000FA
:10000000C80100206D020000810200008302000090
:10001000850200008502000085020000000000004B
:100020000000000000000000000000008502000049
:10003000850200000000000085020000850200002B
:100040008502000085020000850200008502000094
:100050008502000085020000850200008502000084
:100060008502000085020000850200008502000074
:100070008502000085020000850200008502000064
:100080008502000085020000850200008502000054
:100090008502000085020000850200008502000044
:1000A0008502000085020000850200008502000034
:1000B0008502000085020000850200008502000024
:1000C0008502000085020000850200008502000014
:1000D0008502000085020000850200008502000004
:1000E0008502000000000000000000008502000002
:1000F00085020000850200008502000085020000E4
:1001000085020000850200008502000085020000D3
:1001100000000000000000008502000085020000D1
:1001200085020000850200008502000085020000B3
:1001300085020000850200008502000085020000A3
:1001400000000000000000000000000000000000AF
:100150008502000085020000850200008502000083
:10016000000000000000000000000000000000008F
:10017000000000000000000000000000000000007F
:10018000000000000000000000000000000000006F
:10019000000000000000000000000000000000005F
:1001A000000000000000000000000000000000004F
:1001B0008502000085020000850200008502000023
:1001C0008502000085020000850200008502000013
:1001D0008502000085020000850200008502000003
:1001E00085020000850200008502000085020000F3
:1001F00085020000850200008502000085020000E3
:100200008502000085020000850200000000000059
:1002100085020000850200008502000085020000C2
:1002200085020000850200008502000085020000B2
:1002300085020000850200008502000085020000A2
:100240008502000085020000850200008502000092
:100250008502000085020000850200008502000082
:100260008502000085020000850200004EF68850DD
:10027000CEF20000016841F47001016000F004B8A2
:10028000FEE7FEE7FEE7000000F002F800F03CF8B1
:100290000AA090E8000C82448344AAF10107DA45E1
:1002A00001D100F031F8AFF2090EBAE80F0013F0F7
:1002B000010F18BFFB1A43F001031847D40A0000CE
:1002C000F40A0000103A24BF78C878C1FAD852075F
:1002D00024BF30C830C144BF04680C6070470000C0
:1002E0000023002400250026103A28BF78C1FBD83F
:1002F000520728BF30C148BF0B6070471FB500F0E0
:1003000057FB1FBD10B510BD00F0A1F81146FFF757
:10031000F5FF00F045F800F0BFF803B4FFF7F2FF77
:1003200003BC00F0C3F800000138FDD170470000A5
:1003300070B500F0DDF93649B0FBF1F632464FF406
:100340008071344800F0B2F9002420E000F0D0F9C8
:100350002F49B0FBF1F0304931F814104843400008
:100360000521B0FBF1F0060B324640F20711294897
:1003700000F0ADF901228021264800F0A0F94FF4E9
:10038000C87500BF2800A5F10105FBD1641C302C05
:10039000DCDB012280211F4800F091F9002470BDB0
:1003A0001E4800F057FA002000F0E4FA1C4800F064
:1003B000EBFA1C4800F0E8FA1B4800F02FF9202166
:1003C0001A4800F04DF90222D101124800F056F906
:1003D00000F08EF94FF47A61B0FBF1F422464FF44D
:1003E00080710C4800F062F9002240F207110948C0
:1003F00000F06DF901228021064800F060F94FF409
:100400008071044800F04DF901E0FFF791FFFCE72F
:10041000A08601000080024002000020403D8007CD
:10042000004000F0020800F00414020000600040E8
:1004300002480349014A034B70470000C8000020EE
:10044000C8010020C80000207047704770477546FB
:1004500000F028F8AE4605006946534620F0070034
:10046000854618B020B5FFF7E3FFBDE820404FF008
:1004700000064FF000074FF000084FF0000B21F08E
:100480000701AC46ACE8C009ACE8C009ACE8C0095B
:10049000ACE8C0098D4670470446AFF300802046A3
:1004A000FFF73BFF00487047640000200149182017
:1004B000ABBEFEE7260002007047D0F8003412F011
:1004C000010F14BF0B438B43C0F8003412F0020F2E
:1004D000D0F8202414BF114322EA0101C0F82014EF
:1004E00070472DE9F00301264FF0000C0325C2F3FD
:1004F000411706FA0CF40C4211D0D0F8C48F4FEA21
:100500004C0405FA04F928EA0908C0F8C48FD0F8A9
:10051000C48F07FA04F448EA0404C0F8C44F0CF18D
:10052000010C0CF0FF0CBCF1080FE2D3D0F800C5B1
:1005300012F0010F14BF4CEA010C2CEA010CC0F8B8
:1005400000C5D0F804C512F0020F14BF4CEA010C2C
:100550002CEA010CC0F804C5D0F808C512F0040F4D
:1005600014BF4CEA010C2CEA010CC0F808C5D0F805
:1005700018C512F0080F14BF4CEA010C2CEA010C4C
:10058000C0F818C512F0100FD0F83C2514BF0A436C
:100590008A43C0F83C25D0F80C2513F0010F14BF96
:1005A0000A438A43C0F80C25D0F8102513F0020F37
:1005B00014BF0A438A43C0F81025D0F8142513F05D
:1005C000040F14BF0A438A43C0F81425D0F81C2531
:1005D00013F0080F14BF0A438A43C0F81C25D0F853
:1005E000442513F4007F14BF0A438A43C0F844250E
:1005F000D0F8402513F4407F14BF0A438A43C0F863
:100600004025D0F82825002B0CBF114322EA010118
:10061000C0F82815BDE8F003704700000E4AC0F38B
:100620000741D26E01238B401A420C4A1ABF02EBDB
:10063000C101496852F83110020AD1F82C354FF047
:100640000F0C0CFA02FC00F00F0023EA0C039040A0
:100650001843C1F82C05704700E00F403C0B000028
:1006600030B50C4605460222FFF727FF21462846F3
:10067000BDE8304008230122FFF733BF084401687A
:100680006FF352011143016012F0020F14BFB02149
:100690008C21016214BF4FF4306140F60C014162BD
:1006A0007047425842F001024250704708440168C6
:1006B00011F0020F14BF5108511E01617047002A4A
:1006C000826814BF114322EA01018160704721F062
:1006D0003F031844036813F0020F18BF5208036960
:1006E0009A1A11F0010F14BFC261826170470000B5
:1006F00070B44E4D2B6E296F11F0004F14BF01F0F6
:10070000700003F03000202808BF494818D005DCED
:1007100088B1102808BF474812D009E0302808BF28
:1007200047F230500CD0702808BF4FF4004007D07B
:1007300070BC002070477C203F4A00EA131010581C
:100740004FF0FF3211F0004F02D011F4006F06D0CD
:1007500001F0004C03F400645CEA040C3BD1D5F8D2
:1007600060C1D5F8644104F01F06C4F30424641C7E
:10077000761C16FB04F46400B0FBF4F0CCF309041F
:100780004443CCF3892C00FB0CF0D5F810C004EBEB
:10079000902043F480030CF4704CBCF5804F08BFEC
:1007A000264A18D00EDCBCF5805F08BF244A12D060
:1007B000BCF5005F08BF234A0DD0BCF5405F08BF01
:1007C000214A08E0BCF5E04F08BF204A03D0BCF541
:1007D000104F08BF1E4A13F4800F21D011F0004FB4
:1007E00019D011F0804F09D011F4006F0CD001F036
:1007F000004C03F400635CEA030305D0C1F3C55168
:10080000491CB0FBF1F00BE04000C1F38651491CDC
:10081000B0FBF1F004E0C3F3C351491CB0FBF1F0AD
:10082000824238BF104670BC7047000000E00F40A5
:1008300000093D000024F400D40B0000005A6202BD
:1008400000B4C404AA40F90380F0FA0240787D01A4
:10085000002D3101434B30B4196E1A6F21F4800121
:1008600041F4006142F4006419661C6721EA000249
:1008700012F0010F14D060F0010211409A159A6530
:100880001966D3F850C0D2021CF4807F08D1521EE2
:1008900004BF30BC7047D3F850C01CF4807FF6D042
:1008A00021F4FE6100F4FE621143DFF8BCC024F0C5
:1008B000700222F0004200EA0C0C4CEA020200F046
:1008C000080C42EACC0219661A6700F4005C21F4B5
:1008D000005122F400524CEA01014CEA02024FF0AE
:1008E000400CC3F858C012F0004F08BF19661A67D1
:1008F00018BF196621F00101DFF870C021F0F8611E
:1009000000EA0C0C4CEA010122F0FC5200F0FC5C05
:100910004CEA020210F0804F08BF22F0804209D05A
:10092000DFF84CC022F4800200EA0C0C41F4800194
:100930004CEA020210F4006F08BF4FF400400AD1E5
:10094000D3F868C11CF0010F01D1401EF8D121F489
:10095000006122F4006219661A6730BC1020FFF7AC
:10096000E3BC000000E00F40300000800100C00741
:100970000000404003490A6E22F4F012104308665A
:100980007047000000E00F40C0F307230749C0B2E2
:10099000194401F07043C1F3130143EA411141EAE4
:1009A000800040F0007001220260704700E60F40B6
:1009B0004FF04070E1EE100A704700000040004028
:1009C00010000000008005401000000000500040B2
:1009D0001100000000900540110000000060004080
:1009E0001200000000A0054012000000007000404E
:1009F0001300000000B0054013000000004002405A
:100A00001400000000C00540140000000050024027
:100A10002E00000000D005402E00000000600240C3
:100A20002F00000000E005402F0000000070024091
:100A30003000000000F005403000000000D003400E
:100A4000460000000000064046000000001006407E
:100A5000470000000020064048000000003006402B
:100A60007F0000000040064080000000005006406B
:100A700084000000006006408C0000000040004040
:100A800010000000008005401000000000500040F1
:100A900011000000009005401100000000600040BF
:100AA0001200000000A0054012000000007000408D
:100AB0001300000000B00540130000000040024099
:100AC0001400000000C00540140000000050024067
:100AD0002E00000000D005402E0000000060024003
:100AE0002F00000000E005402F00000000700240D1
:100AF0003000000000F005403000000000D003404E
:100B000043000000000006404300000000100640C3
:100B10004400000000200640450000000030064070
:100B200058000000004006405900000000500640F8
:100B30005C000000006006406400000000400040CF
:100B400000800540005000400090054000600040DB
:100B500000A005400070004000B005400040024089
:100B600000C005400050024000D005400060024037
:100B700000E005400070024000F0054000D0034056
:100B8000000006400010064000100640002006400D
:100B9000002006400030064000300640004006407D
:100BA00000400640005006400050064000600640ED
:100BB000006006400070064000700640008006405D
:100BC00000800640009006400090064000D01213BE
:100BD00000389C1C40420F0000201C0080841E0036
:100BE00000802500999E36000040380000093D0035
:100BF00000803E0000004B00404B4C0000204E00A7
:100C0000808D5B0000C05D000080700000127A00E3
:100C100000007D0080969800001BB7000080BB009C
:100C2000C0E8CE00647ADA000024F4000000FA0084
:100C300080A81201002D310100366E0140787D013F
:100C400040000000000000003E000800000000001E
:100C5000A000000002000000345401000000000069
:100C60002B700600000000002800000000000000BB
:100C7000270001000000000020000000000000002C
:100C800050000000020000001AAC0000000000004C
:100C900017940900000000001698050000000000ED
:100CA0001400000000000000138008000000000095
:100CB000A00000000800000010000000000000007C
:100CC00028000000020000004000000004000000B6
:100CD00060000000000000005D000C00000000004B
:100CE00050000000000000004E0002000000000064
:100CF00041AC0100000000003C00000000000000CA
:100D00003A800900000000003000000000000000F0
:100D10002800000000000000270001000000000083
:100D200023600600000000002160080000000000B1
:100D30001E000000000000001DC0040000000000B4
:100D40005000000002000000180000000000000039
:100D5000140000000000000060000000040000001B
:100D60000024F40030003000005A620291001100AB
:100D700000879303D200D20000B4C404130113010E
:100D800000E1F50554015401000E27079501950176
:100D9000B00D00000000002064000000C40200004C
:100DA000140E00006400002064010000E002000056
:100DB0000000FF070A09110A0F0BFF0BDD0CA70D3E
:100DC000570EEC0E630FB90FED0FFE0FED0FB90FBD
:100DD000630FEC0E570EA70DDD0CFF0B0F0B110A66
:100DE0000A09FF07F406ED05EF04FF03210357028C
:100DF000A70112019B0045001100000011004500F1
:100E00009B001201A70157022103FF03EF04ED0528
:040E1000F4060000E4
:04000005000002896C
:00000001FF
