:020000040000FA
:10000000680100206D0200008102000083020000F0
:10001000850200008502000085020000000000004B
:100020000000000000000000000000008502000049
:10003000850200000000000085020000850200002B
:100040008502000085020000850200008502000094
:100050008502000085020000850200008502000084
:100060008502000085020000850200008502000074
:100070008502000085020000850200008502000064
:100080008502000085020000850200008502000054
:100090008502000085020000850200008502000044
:1000A0008502000085020000850200008502000034
:1000B0008502000085020000850200008502000024
:1000C0008502000085020000850200008502000014
:1000D0008502000085020000850200008502000004
:1000E0008502000000000000000000008502000002
:1000F00085020000850200008502000085020000E4
:1001000085020000850200008502000085020000D3
:1001100000000000000000008502000085020000D1
:1001200085020000850200008502000085020000B3
:1001300085020000850200008502000085020000A3
:1001400000000000000000000000000000000000AF
:100150008502000085020000850200008502000083
:10016000000000000000000000000000000000008F
:10017000000000000000000000000000000000007F
:10018000000000000000000000000000000000006F
:10019000000000000000000000000000000000005F
:1001A000000000000000000000000000000000004F
:1001B0008502000085020000850200008502000023
:1001C0008502000085020000850200008502000013
:1001D0008502000085020000850200008502000003
:1001E00085020000850200008502000085020000F3
:1001F00085020000850200008502000085020000E3
:100200008502000085020000850200000000000059
:1002100085020000850200008502000085020000C2
:1002200085020000850200008502000085020000B2
:1002300085020000850200008502000085020000A2
:100240008502000085020000850200008502000092
:100250008502000085020000850200008502000082
:100260008502000085020000850200004EF68850DD
:10027000CEF20000016841F47001016000F004B8A2
:10028000FEE7FEE7FEE7000000F002F800F03CF8B1
:100290000AA090E8000C82448344AAF10107DA45E1
:1002A00001D100F031F8AFF2090EBAE80F0013F0F7
:1002B000010F18BFFB1A43F001031847D0170000C5
:1002C000F0170000103A24BF78C878C1FAD8520756
:1002D00024BF30C830C144BF04680C6070470000C0
:1002E0000023002400250026103A28BF78C1FBD83F
:1002F000520728BF30C148BF0B6070471FB501F0DF
:10030000B8F91FBD10B510BD00F02BFB1146FFF76B
:10031000F5FF00F02AF800F049FB03B4FFF7F2FF05
:1003200003BC00F04DFB00000138FDD17047000018
:1003300010B5214800F0DAFD204800F0D7FD01207B
:1003400000F006FC40F2014000F002FC03214FF0F7
:10035000402000F03BFC00F087FC044622464FF4AE
:10036000E131002000F03AF910BD08B500F038FB8B
:1003700000F02EFB124800F029FDFFF7D9FF11A075
:1003800000F0CAFA00F05AF815E000F0DFF88DED41
:10039000000A9DED000ABDEEC00A10EE104A21468B
:1003A0000CA000F0B9FA00F05FFC0A21B0FBF1F5F7
:1003B0002846FFF7B9FFE8E7000800F0001800F052
:1003C000403D8007544D503735204578616D706C45
:1003D000650A000054656D703D25640D0A0000003B
:1003E00070B500224821714800F03AFC03216F48A3
:1003F00000F0FAFB012400BF21466C4800F0F8FB36
:1004000001216A4800F0F0FB4FF4167500BF280088
:10041000A5F101018DB2FAD160242146634800F0B4
:10042000E7FB4FF4167500BF2800A5F101018DB25E
:10043000FAD105215D4800F0D7FB70BD10B55C48CE
:1004400000F054FD5B4800F051FD40214FF040208A
:1004500000F0AEFB80214FF0402000F09BFB41F606
:10046000030000F075FB41F6034000F071FB5048BB
:1004700000F03CFD00F0F8FB0446012221464B4809
:1004800000F0C4FBFFF7ACFF10BD7CB5002400BF3B
:1004900000224821454800F0E3FB2146434800F094
:1004A000A7FB0721414800F09FFB4FF4167600BFE1
:1004B0003000A6F101018EB2FAD1012248213B4859
:1004C00000F0CEFB0B21394800F08EFB374800F0DE
:1004D0008DFB00904FF4167600BF3000A6F10101AD
:1004E0008EB2FAD10921314800F07EFB2F4800F08E
:1004F0007DFB019005212D4800F076FBDDE9000130
:1005000040EA012085B228467CBD70B50446002231
:100510002146264800F0A4FB0021244800F068FB97
:100520000321224800F060FB2348FFF7FDFE1F482F
:1005300000F060FB054605F0040008B1002070BD26
:1005400005211A4800F050FB0120F8E710B52DED09
:10055000088B82B0FFF799FF0446C4F3031000EE46
:10056000100AB8EEC00A10EE100A01F011F841ECC2
:100570001B0B9FED120B53EC102B00F021FE41ECF6
:10058000190B200A00F004FE41EC1A0B53EC192B56
:1005900000F056FD41EC180B00F020FD01909DEDA0
:1005A000010A02B0BDEC088B10BD00000010024033
:1005B000012000F0000800F020A10700000000006A
:1005C0000000B03F02480349014A034B7047000056
:1005D00068000020680100206800002070B5044613
:1005E0000D461646D34951F8240000F093FC00B99B
:1005F00070BDD14850F82400D0490860CD4951F869
:10060000240000F073FC60232A463146CB48006882
:1006100000F0A2FCC948006800F0D5FC00BFE7E785
:1006200070B505460E4600240DE0285D0A2804D169
:100630000D21C248006800F089FC295DBF480068B0
:1006400000F084FC641CB442EFD3204670BD2DE959
:10065000F04106460F4600257F1E2CE0B748006893
:1006600000F06EFC44B2082C06D125B10321B4A0E1
:10067000FFF7D6FF6D1E1EE00A2C06D1B1480078A8
:1006800018B10020AF49087015E00D2C03D00A2CDA
:1006900001D01B2C05D10D2C02D10120A9490870D5
:1006A0000AE0BD4206D274556D1CE1B2A348006851
:1006B00000F04CFC00BFD1E700BF002070550221C4
:1006C000A1A0FFF7ADFF2846BDE8F08110B59B481B
:1006D000006800F035FCC0B210BD2DE9F34F85B0C5
:1006E000064612E1002400E0641C305D252802D09B
:1006F000305D0028F8D121463046FFF791FF2644AF
:1007000030782528EDD1761C00254FF0200B00BF56
:1007100016F8011B382932D014DC33292AD008DC22
:1007200025296FD0302922D0312921D032296AD110
:100730001FE034291FD035291ED036291DD0372976
:10074000F5D11BE0692935D008DC392918D05829A2
:1007500072D0632922D06429E9D12AE070296CD0B3
:1007600073293CD0752958D07829E0D163E000BFC7
:1007700000BF00BF00BF00BF00BF00BF00BF00BF81
:1007800016F8010C302801D105B9834605EB850028
:10079000450016F8010C30380544B9E706980068A2
:1007A00004900698001D0690012104A8FFF738FF69
:1007B000AAE000BF0698006804900698001D069005
:1007C0004FF000080498002805DA0498404204908D
:1007D0004FF0010901E04FF000090A2739E00698BF
:1007E00050F804AB0690002400E0641C1AF80400E2
:1007F0000028FAD121465046FFF712FFA5420BD937
:100800002D1B05E076E07AE0012150A0FFF708FFFC
:100810002800A5F10105F7D176E00698006804905C
:100820000698001D06904FF000080A274FF00009B7
:100830000FE001E001E000BF00BF069800680490EF
:100840000698001D06904FF0000810274FF0000991
:1008500000BF012401E07C436D1E04FB07F00499F6
:10086000884205D804FB07F0B0FBF7F0A042F2D0B5
:10087000B9F1000F00D06D1EB9F1000F0AD0BBF125
:10088000300F07D12D22404608F101080DF8002055
:100890004FF00009012D0BD9102D09D26D1E05E076
:1008A000404608F101080DF800B06D1E002DF7D18B
:1008B000B9F1000F05D02D22404608F101080DF8CE
:1008C000002010E00498B0FBF4F0B0FBF7F107FB58
:1008D00011001F4909680A5C404608F101080DF83B
:1008E0000020B4FBF7F4002CECD141466846FFF73A
:1008F00097FE09E0701E0121FFF792FE04E005213A
:1009000014A0FFF78DFE00BF00BF307800287FF4F1
:10091000E9AE07B0BDE8F08F0FB408B503A80090AA
:1009200000990298FFF7D9FE0020009001B05DF811
:1009300014FB0000981600008C1600000000002038
:1009400008200800040000200D0A0000200000001C
:10095000881600004552524F520000007047704701
:100960007047754600F028F8AE46050069465346C4
:1009700020F00700854618B020B5FFF723FEBDE83C
:1009800020404FF000064FF000074FF000084FF0F6
:10099000000B21F00701AC46ACE8C009ACE8C00987
:1009A000ACE8C009ACE8C0098D4670470446AFF317
:1009B00000802046FFF7B1FC004870470800002087
:1009C00001491820ABBEFEE7260002007047000078
:1009D0000248016841F470010160704788ED00E051
:1009E0000248016841F040410160704734EF00E087
:1009F000D0F8003412F0010F14BF0B438B43C0F842
:100A0000003412F0020FD0F8202414BF114322EA60
:100A10000101C0F8201470472DE9F00301264FF0C2
:100A2000000C0325C2F3411706FA0CF40C4211D056
:100A3000D0F8C48F4FEA4C0405FA04F928EA0908F3
:100A4000C0F8C48FD0F8C48F07FA04F448EA04044D
:100A5000C0F8C44F0CF1010C0CF0FF0CBCF1080FF6
:100A6000E2D3D0F800C512F0010F14BF4CEA010C1C
:100A70002CEA010CC0F800C5D0F804C512F0020F32
:100A800014BF4CEA010C2CEA010CC0F804C5D0F8E4
:100A900008C512F0040F14BF4CEA010C2CEA010C3B
:100AA000C0F808C5D0F818C512F0080F14BF4CEAFA
:100AB000010C2CEA010CC0F818C512F0100FD0F888
:100AC0003C2514BF0A438A43C0F83C25D0F80C25C6
:100AD00013F0010F14BF0A438A43C0F80C25D0F865
:100AE000102513F0020F14BF0A438A43C0F81025E3
:100AF000D0F8142513F0040F14BF0A438A43C0F83A
:100B00001425D0F81C2513F0080F14BF0A438A439C
:100B1000C0F81C25D0F8442513F4007F14BF0A4305
:100B20008A43C0F84425D0F8402513F4407F14BF11
:100B30000A438A43C0F84025D0F82825002B0CBF73
:100B4000114322EA0101C0F82815BDE8F0037047FF
:100B50000E4AC0F30741D26E01238B401A420C4A61
:100B60001ABF02EBC101496852F83110020AD1F8EC
:100B70002C354FF00F0C0CFA02FC00F00F0023EAAA
:100B80000C0390401843C1F82C05704700E00F405B
:100B90002418000030B50C4605460222FFF728FF56
:100BA00021462846BDE8304009230122FFF734BF23
:100BB00030B50C4605460222FFF71AFF21462846AB
:100BC000BDE8304008230122FFF726BF30B50C46B0
:100BD00005460222FFF70CFF21462846BDE83040BB
:100BE00008230122FFF718BF4160704780687047F3
:100BF00081607047406810F0010F05D110F0120FAE
:100C00001CBF00F01C00704700207047036A43F0CF
:100C100010030362002A14BF0E4A0F4A02EB82033C
:100C200001EB830302EB820292005B1EB3FBF2F244
:100C3000521EC260D0F8C02F12F0010F08BF7047DB
:100C4000064A1144521CB1FBF2F1491E41F08001E9
:100C5000C1607047801A0600A08601007F473701F7
:100C600042EA41010160704770B44E4D2B6E296F0E
:100C700011F0004F14BF01F0700003F03000202885
:100C800008BF494818D005DC88B1102808BF47487C
:100C900012D009E0302808BF47F230500CD070283D
:100CA00008BF4FF4004007D070BC002070477C2084
:100CB0003F4A00EA131010584FF0FF3211F0004F76
:100CC00002D011F4006F06D001F0004C03F4006470
:100CD0005CEA040C3BD1D5F860C1D5F8644104F05E
:100CE0001F06C4F30424641C761C16FB04F4640081
:100CF000B0FBF4F0CCF309044443CCF3892C00FBA3
:100D00000CF0D5F810C004EB902043F480030CF4F1
:100D1000704CBCF5804F08BF264A18D00EDCBCF5DD
:100D2000805F08BF244A12D0BCF5005F08BF234A89
:100D30000DD0BCF5405F08BF214A08E0BCF5E04F8C
:100D400008BF204A03D0BCF5104F08BF1E4A13F459
:100D5000800F21D011F0004F19D011F0804F09D031
:100D600011F4006F0CD001F0004C03F400635CEA56
:100D7000030305D0C1F3C551491CB0FBF1F00BE0F2
:100D80004000C1F38651491CB0FBF1F004E0C3F30D
:100D9000C351491CB0FBF1F0824238BF104670BC11
:100DA0007047000000E00F4000093D000024F400FF
:100DB000BC180000005A620200B4C404AA40F9033F
:100DC00080F0FA0240787D01002D3101434B30B4B0
:100DD000196E1A6F21F4800141F4006142F400643D
:100DE00019661C6721EA000212F0010F14D060F0AE
:100DF000010211409A159A651966D3F850C0D202C3
:100E00001CF4807F08D1521E04BF30BC7047D3F859
:100E100050C01CF4807FF6D021F4FE6100F4FE6225
:100E20001143DFF8BCC024F0700222F0004200EA57
:100E30000C0C4CEA020200F0080C42EACC021966E3
:100E40001A6700F4005C21F4005122F400524CEACD
:100E500001014CEA02024FF0400CC3F858C012F0F6
:100E6000004F08BF19661A6718BF196621F0010103
:100E7000DFF870C021F0F86100EA0C0C4CEA0101C7
:100E800022F0FC5200F0FC5C4CEA020210F0804FB1
:100E900008BF22F0804209D0DFF84CC022F4800263
:100EA00000EA0C0C41F480014CEA020210F4006FDD
:100EB00008BF4FF400400AD1D3F868C11CF0010FFD
:100EC00001D1401EF8D121F4006122F400621966BC
:100ED0001A6730BC1020FFF727BA000000E00F406F
:100EE000300000800100C00700004040C0F307232D
:100EF0000749C0B2194401F07043C1F3130143EA3A
:100F0000411141EA800040F0007001220260704708
:100F100000E60F40C0F307220849C0B2114401F0B7
:100F20007042C1F3130142EA411141EA800040F0EE
:100F300000700068002818BF0120704700E30F40D0
:100F4000816911F0100FFBD100687047826912F0BF
:100F5000200FFBD101607047D0F818C01CF0080FBB
:100F6000FAD1D0F82CC02CF0100CC0F82CC0D0F85E
:100F700030C02CF0010C2CF4407CC0F830C0D0F80C
:100F800030C0B1EB021F34BF4CF0200C2CF0200C11
:100F9000C0F830C038BF5208C900B1FBF2F1491C9B
:100FA00049088A09426201F03F018162C36200215F
:100FB0008161C16A41F01001C162016B40F20132EE
:100FC000114301637047C16A41F01001C162016BB6
:100FD00040F20132114301637047000021F00042EA
:100FE000A2F16052B2F5801F01F0004328BFD2F198
:100FF0007F6C0BD95FEA001C43EAC20242EB5070DF
:1010000018BF704728BF20F001007047B2F5801F5D
:10101000BCBF184670474FEA410C1CF5001F02D2B6
:10102000084600F02BBB70B500F074F90000008991
:10103000FFF7F6BF4FF00040A0F5800070470000BA
:1010400010B591EA030F48BF83F0004300F1BE8161
:10105000841A71EB030C05D2121943EB0C03001B2D
:1010600061EB0C01DFF824E14FEA1154A4EB135CAF
:101070001EEA430F18BF9EEA445F73D023EA0E03B3
:10108000DCF1200E21EA045143F4801332D322FA1A
:101090000CFE10EB0E0023FA0CFE41EB0E01CCF11E
:1010A000200E03FA0EFE10EB0E0051F10001B1F517
:1010B000801FCCF1200E32D201EB045112FA0EF255
:1010C000BDE8104058BF7047401C38BF5FEA42027D
:1010D00018BF7047002814BF20F0010041F1000143
:1010E0004FEA410313F5001F38BF7047A1F1C0411B
:1010F00000F05EB9012A43EB0302ACF1200CDCF1F5
:101100001F0E32BF4FF0000E23FA0CF310EB03005A
:1011100041EB0451B4EB115FD0D0A1EB045101F5C8
:10112000801149085FEA300001EB04510ED350F101
:10113000000038BF12FA0EFE08D1BDE81040C9E722
:10114000401C38BF5FEA4202CAD1C3E7BDE8104085
:101150004FEA410313F5001F38BF7047A1F1C041AA
:1011600000F026B99EEA445F08D011EA5E0FBDE8A0
:10117000104004BF01F0004100207047BDE810405E
:1011800070B500F0C7F800BF64FBBE3E0000E0FF92
:1011900010F0004248BF4042B0FA80F310FA03F169
:1011A0000AD0C3F11D0303F580634FEA415002EBFF
:1011B000035202EBD12170474FF00000704700004E
:1011C000DFF848C170B51CEA111E1EBF1CEA1315DA
:1011D0009EEA0C0F95EA0C0F00F06F8081EA030481
:1011E00023EA4C134EEAD47E21EA4C1141F48011DB
:1011F00043F48013AE44A1FB024CA0FB0365AEF1A7
:101200007F7E361955EB0C05A1FB034C4CF1000316
:10121000A0FB021C16EB0C06654153F100030942CA
:1012200018BF46F0010613F4007F0BD14FEA0331DB
:101230004FEA0530340341EA155140EA16506FF089
:1012400003020AE04FEAC3214FEAC520F40241EA53
:10125000555140EA56506FF0020202EB2E4201EB6C
:10126000025585EACE710AD05FEA440C18BF24F01B
:10127000004450F1000041F1000120EAD47040F236
:10128000FE7C624500D270BDA84214BF4FF080447E
:101290004FF04044002E08BF0024BEF1806FA8BF6D
:1012A000A1F1C041BDE8704080F282804FF00000A3
:1012B00001F1C04101F0004170479EEA0C0F0CEAB9
:1012C000131518BF95EA0C0F06D04FF0000081EA05
:1012D000030E0EF0004170BD00F01CF88900013EC5
:1012E00000F007B800F009B84FEA430C5FEA5C5C15
:1012F00008D081EA030100F05BB84FEA410C5FEAD5
:101300005C5CF6D14FF00000014970470000FF0718
:101310000000F87F0EF1020E2EF0030E5EF8046B53
:10132000364205D4012A43EB030515F5001F12D8F8
:10133000012841EB010C1CF5001F0CD80ED14FEA1F
:10134000D17C15F5001F0CEB4C0C0CF1020C08BF06
:101350004CEBD37C04E04FF0080C01E04FEAD37C67
:101360000CEB4C0526FA05F606F00706B6F1040C60
:1013700006D20EEB860CBDE870404CF0010C6047C5
:10138000DFE80CF0090B02024FF000414FF00000C3
:10139000A1F5002170BD19461046012851EB01044A
:1013A00018BFD4F5001484BF002001F0004170BDC7
:1013B0000808A0F500114FEA3101704710B591EA15
:1013C000030F48BF83F000433FF542AE841A71EB30
:1013D000030C07D212198CF0004C43EB0C03001BDA
:1013E00061EB0C01DFF8A4E14FEA1154A4EB135CAC
:1013F0001EEA430F18BF9EEA445F00F0B08023EA64
:101400006E03524221EA0451C3EB6E0338BF5B1EE8
:10141000DCF1200E25D322FA0CFE10EB0E0043FA6D
:101420000CFE41EB0E01CCF1200E03FA0EFE10EB88
:101430000E0051F10001CCF1200E29D412FA0EF267
:1014400001EB0451BDE8104058BF7047401C1CBF61
:10145000B2F1004F704700280CBF491C20F001007A
:10146000704712EB020E43EB030218BF4FF0010E60
:101470004EEA4202ACF1200CDCF11E0E54D943FAC4
:101480000CFE10EB0E0051F1FF31CCF11E0ED5D544
:101490000EF1010E12FA0EFE404141EB010101EB8B
:1014A000445C5FEA5C5C10D910EBDE7001EB045128
:1014B00038BFBEF1004FBDE8104018BF704700288C
:1014C0000CBF491C20F00100704730D24FEAD42CE9
:1014D00011F5001124F400641BD0B1FA81F20B3A2B
:1014E000A41AA41ED2F12003914030FA03F3194349
:1014F000904001EBCC71002C01EB0451BDE8104091
:10150000A8BF704701F1C0414FF0000001F0004159
:101510007047B0FA80F310FA03F100D110BDE41A5D
:10152000173C4805C90AE4E701EB045110BD491016
:1015300001EB0451BDE810404FEA300002E04FF0EB
:10154000000170474A0008BF0042F8D0B2F5001F02
:1015500028BF704701F000414FF0000070479EEA3D
:10156000445F07D011EA5E0FBDE8104004BF0021C0
:1015700000207047BDE8104070B5FFF7CBFE00BFFC
:1015800040DFF63E83F00041104670470000E0FF68
:1015900043004FEAD30C4FEA3C0C43401FBF4007C7
:1015A0000CF1605113F0FE4F70471CF0006F03D137
:1015B00000200CF0004170470CF0004343EA5070EB
:1015C00010B540EACC0000F00EF800BF0000009219
:1015D0004FEA0001FFF7ECBE4FF000414FF0000072
:1015E000A1F5002170470EF1020E2EF0030E5EF8F9
:1015F000044B244204D44FEA4102B2F17F4F11D888
:101600004FEA4003B3F17F4F0CD80ED14FEAD07CA4
:10161000B2F17F4F0CEB4C0C0CF1020C08BF4CEB01
:10162000D17C04E04FF0080C01E04FEAD17C0CEBD8
:101630004C0324FA03F404F00704B4F1040C06D2BA
:101640000EEB840CBDE810404CF0010C6047DFE865
:101650000CF0070802024FF00040A0F5800010BD1A
:101660000846420018BFD2F1807288BF00F00040E7
:1016700010BD4FF04070E1EE100A7047FF2141EAC3
:10168000D050C00570470000781A000000C000402C
:1016900000D0004000E00040001800F0011800F009
:1016A000021800F0004000401000000000800540DB
:1016B00010000000005000401100000000900540A4
:1016C00011000000006000401200000000A0054072
:1016D00012000000007000401300000000B0054040
:1016E00013000000004002401400000000C005404C
:1016F00014000000005002402E00000000D0054001
:101700002E000000006002402F00000000E00540B5
:101710002F000000007002403000000000F0054083
:101720003000000000D003404600000000000640EA
:101730004600000000100640470000000020064060
:1017400048000000003006407F00000000400640D6
:101750008000000000500640840000000060064049
:101760008C00000000400040100000000080054098
:1017700010000000005000401100000000900540E3
:1017800011000000006000401200000000A00540B1
:1017900012000000007000401300000000B005407F
:1017A00013000000004002401400000000C005408B
:1017B00014000000005002402E00000000D0054040
:1017C0002E000000006002402F00000000E00540F5
:1017D0002F000000007002403000000000F00540C3
:1017E0003000000000D0034043000000000006402D
:1017F00043000000001006404400000000200640A6
:10180000450000000030064058000000004006403F
:1018100059000000005006405C00000000600640D7
:10182000640000000040004000800540005000407F
:10183000009005400060004000A00540007000409E
:1018400000B005400040024000C00540005002408A
:1018500000D005400060024000E0054000700240FA
:1018600000F0054000D00340000006400010064094
:1018700000100640002006400020064000300640D0
:101880000030064000400640004006400050064040
:1018900000500640006006400060064000700640B0
:1018A0000070064000800640008006400090064020
:1018B0000090064000D0121300389C1C40420F00DC
:1018C00000201C0080841E0000802500999E3600A8
:1018D0000040380000093D0000803E0000004B0041
:1018E000404B4C0000204E00808D5B0000C05D002E
:1018F0000080700000127A0000007D008096980041
:10190000001BB7000080BB00C0E8CE00647ADA009C
:101910000024F4000000FA0080A81201002D31011B
:1019200000366E0140787D0140000000000000009C
:101930003E00080000000000A000000002000000BF
:1019400034540100000000002B700600000000006D
:101950002800000000000000270001000000000037
:101960002000000000000000500000000200000005
:101970001AAC0000000000001794090000000000ED
:101980001698050000000000140000000000000090
:101990001380080000000000A00000000800000004
:1019A00010000000000000002800000002000000FD
:1019B0004000000004000000600000000000000083
:1019C0005D000C000000000050000000000000005E
:1019D0004E0002000000000041AC010000000000C9
:1019E0003C000000000000003A80090000000000F8
:1019F000300000000000000028000000000000008F
:101A00002700010000000000236006000000000025
:101A100021600800000000001E000000000000001F
:101A20001DC0040000000000500000000200000083
:101A3000180000000000000014000000000000007A
:101A400060000000040000000024F40030003000BA
:101A5000005A62029100110000879303D200D20065
:101A600000B4C4041301130100E1F505540154014D
:101A7000000E270795019501303132333435363762
:101A8000383961626364656600000000AC1A0000CA
:101A90000000002008000000C4020000B41A00008A
:101AA0000800002060010000E002000000000000CB
:041AB0000000000032
:04000005000002896C
:00000001FF
