:020000040000FA
:10000000600100206D0200008102000083020000F8
:10001000850200008502000085020000000000004B
:100020000000000000000000000000008502000049
:10003000850200000000000085020000850200002B
:100040008502000085020000850200008502000094
:100050008502000085020000850200008502000084
:100060008502000085020000850200008502000074
:100070008502000085020000850200008502000064
:100080008502000085020000850200008502000054
:100090008502000085020000850200008502000044
:1000A0008502000085020000850200008502000034
:1000B0008502000085020000850200008502000024
:1000C0008502000085020000850200008502000014
:1000D0008502000085020000850200008502000004
:1000E0008502000000000000000000008502000002
:1000F00085020000850200008502000085020000E4
:1001000085020000850200008502000085020000D3
:1001100000000000000000008502000085020000D1
:1001200085020000850200008502000085020000B3
:1001300085020000850200008502000085020000A3
:1001400000000000000000000000000000000000AF
:100150008502000085020000850200008502000083
:10016000000000000000000000000000000000008F
:10017000000000000000000000000000000000007F
:10018000000000000000000000000000000000006F
:10019000000000000000000000000000000000005F
:1001A000000000000000000000000000000000004F
:1001B0008502000085020000850200008502000023
:1001C0008502000085020000850200008502000013
:1001D0008502000085020000850200008502000003
:1001E00085020000850200008502000085020000F3
:1001F00085020000850200008502000085020000E3
:100200008502000085020000850200000000000059
:1002100085020000850200008502000085020000C2
:1002200085020000850200008502000085020000B2
:1002300085020000850200008502000085020000A2
:100240008502000085020000850200008502000092
:100250008502000085020000850200008502000082
:100260008502000085020000850200004EF68850DD
:10027000CEF20000016841F47001016000F004B8A2
:10028000FEE7FEE7FEE7000000F002F800F02EF8BF
:100290000AA090E8000C82448344AAF10107DA45E1
:1002A00001D100F023F8AFF2090EBAE80F0013F005
:1002B000010F18BFFB1A43F0010318472C0500007B
:1002C0003C0500000023002400250026103A28BF2A
:1002D00078C1FBD8520728BF30C148BF0B607047B8
:1002E0001FB500F07BFA1FBD10B510BD00F049F836
:1002F0001146FFF7F5FF00F00DF800F067F803B4C2
:10030000FFF7F2FF03BC00F06BF800000138FDD1ED
:10031000704700001FB50F4802900F4803900F4828
:1003200000F09AF90E4800F027FA00F061F800F0AA
:1003300081F808220021684600F074F908220021A3
:1003400002A800F0BDF808220021684600F06AF912
:1003500000BFFEE778563412BC9A7856400540023A
:10036000005800F002480349014A034B704700005F
:10037000600000206001002060000020704770478E
:100380007047754600F028F8AE46050069465346AA
:1003900020F00700854618B020B5FFF7E3FFBDE861
:1003A00020404FF000064FF000074FF000084FF0DC
:1003B000000B21F00701AC46ACE8C009ACE8C0096D
:1003C000ACE8C009ACE8C0098D4670470446AFF3FD
:1003D00000802046FFF793FF004870470000002090
:1003E00001491820ABBEFEE726000200704700005E
:1003F00010B50220FFF78AFF0C4CA06910F0010F26
:10040000FBD1E06910F00C0F0ED1094800F0C8F9DB
:100410000220FFF77BFFA06910F0010FFBD1E0691C
:1004200010F00C0008BF10BD022010BD00F00A4003
:10043000005800F070B51B4801681B4A1140A1F13B
:100440008052B2F5A02202BF006880B2002814D109
:100450000A20FFF75BFF154D032045F8FC0F0A202B
:10046000FFF754FF12480024C0F8C0420A20FFF7EB
:100470004DFF2C600A20FFF749FF0F4C0D48C4F8D0
:100480008000A06910F0010FFBD10C4800F088F942
:100490000220FFF73BFFA06910F0010FFBD1A0691C
:1004A00070BD000000E00F400000FF7000D00F4062
:1004B00000E00A4001007BE300F00A40005800F031
:1004C0002DE9F05FDFF848810646D8F8180010F0F3
:1004D000010FFAD18809C8F80400C1F38300C8F8F5
:1004E0000800DFF83091DFF830A195084FF0000BDD
:1004F00067D0C809012101FA00F0C743DAF80010FB
:1005000046480140A1F18050B0F5A02002BFDAF8C2
:10051000000080B2002813D10A20FFF7F7FE032065
:10052000C9F8FC000A20FFF7F1FE3D48C0F8C07290
:100530000A20FFF7EBFEC9F8FCB00A20FFF7E6FE41
:100540003068C8F814000A20FFF7E0FED8F8184019
:1005500014F0010FFAD114F0100F24D0DAF80010C3
:100560002E480140A1F18050B0F5A02002BFDAF87A
:10057000000080B2002813D10A20FFF7C7FE032035
:10058000C9F8FC000A20FFF7C1FE2548C0F8C0B238
:100590000A20FFF7BBFEC9F8FCB00A20FFF7B6FE41
:1005A0002046BDE8F09F6D1E06F1040609D0D8F87C
:1005B00008000028A2D1D8F80400401CC8F80400A4
:1005C0009CE7DAF8001015480140A1F18050B0F521
:1005D000A02002BFDAF8000080B2002813D10A2060
:1005E000FFF794FE0320C9F8FC000A20FFF78EFEF7
:1005F0000B48C0F8C0B20A20FFF788FEC9F8FCB06B
:100600000A20FFF783FED8F81800BDE8F09F00002D
:1006100000F00A4000D00F4000E00F400000FF70E3
:1006200000E00A400B4B4FEA911CC3F804C0C1F331
:1006300083019960910808BF70475A6940F8042BFC
:10064000491E08BF70479A68002AF6D15A68521CA2
:100650005A60F2E700F00A40434B30B4196E1A6F4B
:1006600021F4800141F4006142F4006419661C67C2
:1006700021EA000212F0010F14D060F001021140D3
:100680009A159A651966D3F850C0D2021CF4807F7F
:1006900008D1521E04BF30BC7047D3F850C01CF4C0
:1006A000807FF6D021F4FE6100F4FE621143DFF892
:1006B000BCC024F0700222F0004200EA0C0C4CEAAC
:1006C000020200F0080C42EACC0219661A6700F434
:1006D000005C21F4005122F400524CEA01014CEA82
:1006E00002024FF0400CC3F858C012F0004F08BF90
:1006F00019661A6718BF196621F00101DFF870C08A
:1007000021F0F86100EA0C0C4CEA010122F0FC52E5
:1007100000F0FC5C4CEA020210F0804F08BF22F0AF
:10072000804209D0DFF84CC022F4800200EA0C0CB1
:1007300041F480014CEA020210F4006F08BF4FF44C
:1007400000400AD1D3F868C11CF0010F01D1401E4E
:10075000F8D121F4006122F4006219661A6730BCF6
:100760001020FFF7D3BD000000E00F4030000080F4
:100770000100C00700004040C0F307230749C0B292
:10078000194401F07043C1F3130143EA411141EAF6
:10079000800040F0007001220260704700E60F40C8
:1007A000C0F307230C49C0B2194401F07043C1F3F0
:1007B000130143EA411141EA800040F0007181B029
:1007C00001220A60002200920098401C009010282C
:1007D000FAD30A6001B0704700E50F404FF0407057
:1007E000E1EE100A70470000F8070000000000204A
:0807F00060010000C4020000DA
:04000005000002896C
:00000001FF
