:020000040000FA
:10000000D80300206D02000081020000830200007E
:10001000850200008502000085020000000000004B
:100020000000000000000000000000008502000049
:10003000850200000000000085020000850200002B
:100040008502000085020000850200008502000094
:100050008502000085020000850200008502000084
:100060008502000085020000850200008502000074
:100070008502000085020000850200008502000064
:100080008502000085020000850200008502000054
:100090008502000085020000850200008502000044
:1000A0008502000085020000850200008502000034
:1000B0008502000085020000850200008502000024
:1000C0008502000085020000850200008502000014
:1000D0008502000085020000850200008502000004
:1000E0008502000000000000000000008502000002
:1000F00085020000850200008502000085020000E4
:1001000085020000850200008502000085020000D3
:1001100000000000000000008502000085020000D1
:1001200085020000850200008502000085020000B3
:1001300085020000850200008502000085020000A3
:1001400000000000000000000000000000000000AF
:100150008502000085020000850200008502000083
:10016000000000000000000000000000000000008F
:10017000000000000000000000000000000000007F
:10018000000000000000000000000000000000006F
:10019000000000000000000000000000000000005F
:1001A000000000000000000000000000000000004F
:1001B0008502000085020000850200008502000023
:1001C0008502000085020000850200008502000013
:1001D0008502000085020000850200008502000003
:1001E00085020000850200008502000085020000F3
:1001F00085020000850200008502000085020000E3
:100200008502000085020000850200000000000059
:1002100085020000850200008502000085020000C2
:1002200085020000850200008502000085020000B2
:1002300085020000850200008502000085020000A2
:100240008502000085020000850200008502000092
:100250008502000085020000850200008502000082
:100260008502000085020000850200004EF68850DD
:10027000CEF20000016841F47001016000F004B8A2
:10028000FEE7FEE7FEE7000000F002F800F04CF8A1
:100290000AA090E8000C82448344AAF10107DA45E1
:1002A00001D100F041F8AFF2090EBAE80F0013F0E7
:1002B000010F18BFFB1A43F001031847840900001F
:1002C000A40900000A4410F8014B14F00F0508BF00
:1002D00010F8015B240908BF10F8014B6D1E05D012
:1002E00010F8013B6D1E01F8013BF9D1641E03D0EB
:1002F000641E01F8015BFBD19142E4D3704700001A
:100300000023002400250026103A28BF78C1FBD81E
:10031000520728BF30C148BF0B6070471FB500F0BF
:10032000F3FA1FBD10B510BD00F097F81146FFF7A6
:10033000F5FF00F019F800F0B5F803B4FFF7F2FF8D
:1003400003BC00F0BDF800000138FDD1704700008B
:100350000348012101700348102100F0CCB800BF10
:10036000D002002000500240B0B52D4800F028FA1D
:100370002C4C204600F0B4FA4FF04020102100F041
:10038000C1F94FF040201021102200F0C9F9601D82
:1003900000F0A6FA244C25480025C4F8200524487E
:1003A000016841F00101016020460121C4F8205597
:1003B00000F0A8F920460121012200F0B1F9204601
:1003C000102100F091F920461021002200F0C8F819
:1003D0002046102100F092F81649204600F094F8CB
:1003E000154C2078012817D16068013000EBD071DE
:1003F000606001F0FE01401AC0B230B101280AD19C
:100400004FF040201021002203E04FF04020102147
:10041000102200F085F9257000467047E1E700BF23
:100420004005C001000800F0005002404B434F4C13
:100430002455024051030000D00200200248034925
:10044000014A034B70470000D8020020D803002067
:10045000D8020020704770477047754600F02CF8AE
:10046000AE4605006946534620F00700854618B0A1
:1004700020B5FFF7E3FFBDE820404FF000064FF046
:1004800000074FF000084FF0000BAC46ACE8C00985
:10049000ACE8C009ACE8C009ACE8C00921F007012C
:1004A0008D46704710B50446AFF300802046BDE886
:1004B0001040FFF742BF0000004870477002002064
:1004C00001491820ABBEFEE7260002007047D0F8B5
:1004D000003412F0010F14BF0B438B43C0F80034FB
:1004E00012F0020FD0F8202414BF114322EA0101B8
:1004F000C0F820147047C0F81C147047D0F81024BE
:100500001143C0F810147047124A10B5104B12680E
:100510004FF0180C104C2240A2F18054B4F5202466
:1005200008BF0E4B002253F83240844203D103EB44
:10053000C200446803E0521C6245F4D30024204604
:1005400000F024F92046BDE8104000F0EDB80000AE
:100550002409000000E00F400000FF70E4090000E3
:10056000D0F8083412F0010F14BF0B438B43C0F8CE
:100570000834D0F8043412F0020F14BF0B438B433D
:10058000C0F80434D0F80C3412F0040F14BF19432F
:1005900023EA0101C0F80C14D0F8381512F4803F9A
:1005A00014BF41F0010121F00101C0F83815704776
:1005B0002DE9F00301264FF0000C0325C2F341178B
:1005C00006FA0CF40C4211D0D0F8C48F4FEA4C0458
:1005D00005FA04F928EA0908C0F8C48FD0F8C48FD6
:1005E00007FA04F448EA0404C0F8C44F0CF1010C03
:1005F0000CF0FF0CBCF1080FE2D3D0F800C512F0EC
:10060000010F14BF4CEA010C2CEA010CC0F800C524
:10061000D0F804C512F0020F14BF4CEA010C2CEA0A
:10062000010CC0F804C5D0F808C512F0040F14BFBF
:100630004CEA010C2CEA010CC0F808C5D0F818C52A
:1006400012F0080F14BF4CEA010C2CEA010CC0F8A0
:1006500018C512F0100FD0F83C2514BF0A438A4386
:10066000C0F83C25D0F80C2513F0010F14BF0A4345
:100670008A43C0F80C25D0F8102513F0020F14BFE0
:100680000A438A43C0F81025D0F8142513F0040F4C
:1006900014BF0A438A43C0F81425D0F81C2513F070
:1006A000080F14BF0A438A43C0F81C25D0F844251C
:1006B00013F4007F14BF0A438A43C0F84425D0F8DE
:1006C000402513F4407F14BF0A438A43C0F84025F5
:1006D000D0F82825002B0CBF114322EA0101C0F8F5
:1006E0002815BDE8F003704730B50C4605460022DA
:1006F000FFF7EDFE21462846BDE8304008230122E1
:10070000FFF756BF30B50C46054608230122FFF718
:100710004FFF21462846BDE830400122FFF7D7BEF3
:1007200040F82120704700001649042804BF0868DB
:1007300040F4803018D0052804BF086840F4003029
:1007400012D0062812D00F2815D0102838BF7047B5
:10075000103800F01F01012202FA01F142090A4893
:1007600050F822000160704708607047086840F444
:100770008020086070474FF0E020016941F00201DD
:100780000161704724ED00E0F00B000030B40A4D29
:100790002A680A4B9A421CBFD5F800C0002207D035
:1007A0005CF8224043F82240521C9B2AF8D32B606D
:1007B00043F8201030BC704708ED00E00000002036
:1007C000434B30B4196E1A6F21F4800141F400617B
:1007D00042F4006419661C6721EA000212F0010F5E
:1007E00014D060F0010211409A159A651966D3F889
:1007F00050C0D2021CF4807F08D1521E04BF30BC0E
:100800007047D3F850C01CF4807FF6D021F4FE610D
:1008100000F4FE621143DFF8BCC024F0700222F045
:10082000004200EA0C0C4CEA020200F0080C42EA1A
:10083000CC0219661A6700F4005C21F4005122F41E
:1008400000524CEA01014CEA02024FF0400CC3F89E
:1008500058C012F0004F08BF19661A6718BF196612
:1008600021F00101DFF870C021F0F86100EA0C0C02
:100870004CEA010122F0FC5200F0FC5C4CEA02025E
:1008800010F0804F08BF22F0804209D0DFF84CC042
:1008900022F4800200EA0C0C41F480014CEA0202CE
:1008A00010F4006F08BF4FF400400AD1D3F868C1BC
:1008B0001CF0010F01D1401EF8D121F4006122F497
:1008C000006219661A6730BC1020FFF73DBD0000BA
:1008D00000E00F40300000800100C00700004040F1
:1008E000C0F307230749C0B2194401F07043C1F3B4
:1008F000130143EA411141EA800040F000700122F7
:100900000260704700E60F40F1EE100A4FF6FF71EB
:10091000C0F2C03120EA010040F04070E1EE100A60
:1009200070470000004000401000000000800540BB
:100930001000000000500040110000000090054031
:1009400011000000006000401200000000A00540FF
:1009500012000000007000401300000000B00540CD
:1009600013000000004002401400000000C00540D9
:1009700014000000005002402E00000000D005408E
:100980002E000000006002402F00000000E0054043
:100990002F000000007002403000000000F0054011
:1009A0003000000000D00340460000000000064078
:1009B00046000000001006404700000000200640EE
:1009C00048000000003006407F0000000040064064
:1009D00080000000005006408400000000600640D7
:1009E0008C00000000400040100000000080054026
:1009F0001000000000500040110000000090054071
:100A000011000000006000401200000000A005403E
:100A100012000000007000401300000000B005400C
:100A200013000000004002401400000000C0054018
:100A300014000000005002402E00000000D00540CD
:100A40002E000000006002402F00000000E0054082
:100A50002F000000007002403000000000F0054050
:100A60003000000000D003404300000000000640BA
:100A70004300000000100640440000000020064033
:100A800045000000003006405800000000400640CD
:100A900059000000005006405C0000000060064065
:100AA000640000000040004000800540005000400D
:100AB000009005400060004000A00540007000402C
:100AC00000B005400040024000C005400050024018
:100AD00000D005400060024000E005400070024088
:100AE00000F0054000D00340000006400010064022
:100AF000001006400020064000200640003006405E
:100B000000300640004006400040064000500640CD
:100B1000005006400060064000600640007006403D
:100B200000700640008006400080064000900640AD
:100B300000900640000700000006000000050000CD
:100B4000000400000003000000020000000100009B
:100B5000000000000000000018ED00E01CED00E0C7
:100B600020ED00E000E400E004E400E008E400E040
:100B70000CE400E010E400E014E400E018E400E01D
:100B80001CE400E020E400E024E400E028E400E0CD
:100B90002CE400E030E400E034E400E038E400E07D
:100BA0003CE400E040E400E044E400E048E400E02D
:100BB0004CE400E050E400E054E400E058E400E0DD
:100BC0005CE400E060E400E064E400E068E400E08D
:100BD0006CE400E070E400E074E400E078E400E03D
:100BE0007CE400E080E400E084E400E088E400E0ED
:100BF00000E100E004E100E008E100E00CE100E0D9
:100C000010E100E080E100E084E100E088E100E044
:100C10008CE100E090E100E000E200E004E200E0AE
:100C200008E200E00CE200E010E200E080E200E018
:100C300084E200E088E200E08CE200E090E200E084
:100C4000001000000000002070020000C40200003C
:100C5000081000007002002068010000000300007E
:100C60000000000000000000000000000000000084
:100C70000000000000000000000000000000000074
:100C80000000000000000000000000000000000064
:100C90000000000000000000000000000000000054
:0810000001FF01FF0175000072
:04000005000002896C
:00000001FF
