:020000040000FA
:10000000600100206D0200008102000083020000F8
:10001000850200008502000085020000000000004B
:100020000000000000000000000000008502000049
:10003000850200000000000085020000850200002B
:100040008502000085020000850200008502000094
:100050008502000085020000850200008502000084
:100060008502000085020000850200008502000074
:100070008502000085020000850200008502000064
:100080008502000085020000850200008502000054
:100090008502000085020000850200008502000044
:1000A0008502000085020000850200008502000034
:1000B0008502000085020000850200008502000024
:1000C0008502000085020000850200008502000014
:1000D0008502000085020000850200008502000004
:1000E0008502000000000000000000008502000002
:1000F00085020000850200008502000085020000E4
:1001000085020000850200008502000085020000D3
:1001100000000000000000008502000085020000D1
:1001200085020000850200008502000085020000B3
:1001300085020000850200008502000085020000A3
:1001400000000000000000000000000000000000AF
:100150008502000085020000850200008502000083
:10016000000000000000000000000000000000008F
:10017000000000000000000000000000000000007F
:10018000000000000000000000000000000000006F
:10019000000000000000000000000000000000005F
:1001A000000000000000000000000000000000004F
:1001B0008502000085020000850200008502000023
:1001C0008502000085020000850200008502000013
:1001D0008502000085020000850200008502000003
:1001E00085020000850200008502000085020000F3
:1001F00085020000850200008502000085020000E3
:100200008502000085020000850200000000000059
:1002100085020000850200008502000085020000C2
:1002200085020000850200008502000085020000B2
:1002300085020000850200008502000085020000A2
:100240008502000085020000850200008502000092
:100250008502000085020000850200008502000082
:100260008502000085020000850200004EF68850DD
:10027000CEF20000016841F47001016000F004B8A2
:10028000FEE7FEE7FEE7000000F002F800F02EF8BF
:100290000AA090E8000C82448344AAF10107DA45E1
:1002A00001D100F023F8AFF2090EBAE80F0013F005
:1002B000010F18BFFB1A43F001031847D8020000D2
:1002C000E80200000023002400250026103A28BF81
:1002D00078C1FBD8520728BF30C148BF0B607047B8
:1002E0001FB500F051F91FBD10B510BD00F03BF86F
:1002F0001146FFF7F5FF00F00DF800F059F803B4D0
:10030000FFF7F2FF03BC00F05DF800000138FDD1FB
:10031000704700001CB50948009009480190094841
:1003200000F0A2F84FF4803000F054F80822510396
:10033000684600F065F800BFFEE70000785634120A
:10034000BC9A78564005400202480349014A034BD3
:100350007047000060000020600100206000002065
:10036000704770477047754600F028F8AE460500A4
:100370006946534620F00700854618B020B5FFF7C0
:10038000E3FFBDE820404FF000064FF000074FF0BC
:1003900000084FF0000B21F00701AC46ACE8C009A3
:1003A000ACE8C009ACE8C009ACE8C0098D467047AC
:1003B0000446AFF300802046FFF7A1FF00487047D6
:1003C0000000002001491820ABBEFEE72600020015
:1003D00070470000084940F601224A61086007485A
:1003E0008860886810F0020FFBD1C868104018BF01
:1003F0004FF0FF307047000000D00F40020042A4D1
:1004000070B4174B42F2016CC3F814C0002A18BF35
:10041000144C1DD021F07F051D600BE001F07C061F
:1004200006F1804606F57D2650F8045BC6F80051BB
:10043000091D121F11F07C0F01D11D6B0DB9002A8F
:10044000ECD11C621D6A15F0010FFBD1002AE1D12D
:10045000D86810EA0C0018BF4FF0FF3070BC70472E
:1004600000D00F40010042A4434B30B4196E1A6F04
:1004700021F4800141F4006142F4006419661C67B4
:1004800021EA000212F0010F14D060F001021140C5
:100490009A159A651966D3F850C0D2021CF4807F71
:1004A00008D1521E04BF30BC7047D3F850C01CF4B2
:1004B000807FF6D021F4FE6100F4FE621143DFF884
:1004C000BCC024F0700222F0004200EA0C0C4CEA9E
:1004D000020200F0080C42EACC0219661A6700F426
:1004E000005C21F4005122F400524CEA01014CEA74
:1004F00002024FF0400CC3F858C012F0004F08BF82
:1005000019661A6718BF196621F00101DFF870C07B
:1005100021F0F86100EA0C0C4CEA010122F0FC52D7
:1005200000F0FC5C4CEA020210F0804F08BF22F0A1
:10053000804209D0DFF84CC022F4800200EA0C0CA3
:1005400041F480014CEA020210F4006F08BF4FF43E
:1005500000400AD1D3F868C11CF0010F01D1401E40
:10056000F8D121F4006122F4006219661A6730BCE8
:100570001020FFF7CBBE000000E00F4030000080ED
:100580000100C007000040404FF04070E1EE100A4B
:1005900070470000A405000000000020600100007A
:0405A000C402000091
:04000005000002896C
:00000001FF
